{
  "contractName": "Items",
  "abi": [
    {
      "constant": true,
      "inputs": [
        {
          "name": "",
          "type": "uint256"
        }
      ],
      "name": "itemToOwner",
      "outputs": [
        {
          "name": "",
          "type": "address"
        }
      ],
      "payable": false,
      "stateMutability": "view",
      "type": "function"
    },
    {
      "constant": true,
      "inputs": [
        {
          "name": "status",
          "type": "uint8"
        }
      ],
      "name": "isPosting",
      "outputs": [
        {
          "name": "",
          "type": "bool"
        }
      ],
      "payable": false,
      "stateMutability": "view",
      "type": "function"
    },
    {
      "constant": true,
      "inputs": [
        {
          "name": "status",
          "type": "uint8"
        }
      ],
      "name": "isMatched",
      "outputs": [
        {
          "name": "",
          "type": "bool"
        }
      ],
      "payable": false,
      "stateMutability": "view",
      "type": "function"
    },
    {
      "constant": true,
      "inputs": [
        {
          "name": "",
          "type": "uint256"
        }
      ],
      "name": "_items",
      "outputs": [
        {
          "name": "_name",
          "type": "string"
        },
        {
          "name": "_description",
          "type": "string"
        },
        {
          "name": "_changeId",
          "type": "uint256"
        },
        {
          "name": "_status",
          "type": "uint8"
        }
      ],
      "payable": false,
      "stateMutability": "view",
      "type": "function"
    },
    {
      "constant": false,
      "inputs": [],
      "name": "renounceOwnership",
      "outputs": [],
      "payable": false,
      "stateMutability": "nonpayable",
      "type": "function"
    },
    {
      "constant": true,
      "inputs": [],
      "name": "owner",
      "outputs": [
        {
          "name": "",
          "type": "address"
        }
      ],
      "payable": false,
      "stateMutability": "view",
      "type": "function"
    },
    {
      "constant": true,
      "inputs": [],
      "name": "isOwner",
      "outputs": [
        {
          "name": "",
          "type": "bool"
        }
      ],
      "payable": false,
      "stateMutability": "view",
      "type": "function"
    },
    {
      "constant": false,
      "inputs": [
        {
          "name": "newOwner",
          "type": "address"
        }
      ],
      "name": "transferOwnership",
      "outputs": [],
      "payable": false,
      "stateMutability": "nonpayable",
      "type": "function"
    },
    {
      "anonymous": false,
      "inputs": [
        {
          "indexed": true,
          "name": "previousOwner",
          "type": "address"
        },
        {
          "indexed": true,
          "name": "newOwner",
          "type": "address"
        }
      ],
      "name": "OwnershipTransferred",
      "type": "event"
    }
  ],
  "bytecode": "0x6080604052336000806101000a81548173ffffffffffffffffffffffffffffffffffffffff021916908373ffffffffffffffffffffffffffffffffffffffff1602179055506000809054906101000a900473ffffffffffffffffffffffffffffffffffffffff1673ffffffffffffffffffffffffffffffffffffffff16600073ffffffffffffffffffffffffffffffffffffffff167f8be0079c531659141344cd1fd0a4f28419497f9722a3daafe3b4186f6b6457e060405160405180910390a361084f806100cf6000396000f30060806040526004361061008e576000357c0100000000000000000000000000000000000000000000000000000000900463ffffffff1680631a4d96cd146100935780631a614f08146101005780631c4aedcb146101485780634402941014610190578063715018a6146102be5780638da5cb5b146102d55780638f32d59b1461032c578063f2fde38b1461035b575b600080fd5b34801561009f57600080fd5b506100be6004803603810190808035906020019092919050505061039e565b604051808273ffffffffffffffffffffffffffffffffffffffff1673ffffffffffffffffffffffffffffffffffffffff16815260200191505060405180910390f35b34801561010c57600080fd5b5061012e600480360381019080803560ff1690602001909291905050506103d1565b604051808215151515815260200191505060405180910390f35b34801561015457600080fd5b50610176600480360381019080803560ff169060200190929190505050610407565b604051808215151515815260200191505060405180910390f35b34801561019c57600080fd5b506101bb6004803603810190808035906020019092919050505061043c565b6040518080602001806020018581526020018460018111156101d957fe5b60ff168152602001838103835287818151815260200191508051906020019080838360005b838110156102195780820151818401526020810190506101fe565b50505050905090810190601f1680156102465780820380516001836020036101000a031916815260200191505b50838103825286818151815260200191508051906020019080838360005b8381101561027f578082015181840152602081019050610264565b50505050905090810190601f1680156102ac5780820380516001836020036101000a031916815260200191505b50965050505050505060405180910390f35b3480156102ca57600080fd5b506102d36105b8565b005b3480156102e157600080fd5b506102ea61068a565b604051808273ffffffffffffffffffffffffffffffffffffffff1673ffffffffffffffffffffffffffffffffffffffff16815260200191505060405180910390f35b34801561033857600080fd5b506103416106b3565b604051808215151515815260200191505060405180910390f35b34801561036757600080fd5b5061039c600480360381019080803573ffffffffffffffffffffffffffffffffffffffff16906020019092919050505061070a565b005b60026020528060005260406000206000915054906101000a900473ffffffffffffffffffffffffffffffffffffffff1681565b60006103db6106b3565b15156103e657600080fd5b600060018111156103f357fe5b8260018111156103ff57fe5b149050919050565b60006104116106b3565b151561041c57600080fd5b60018081111561042857fe5b82600181111561043457fe5b149050919050565b60018181548110151561044b57fe5b9060005260206000209060040201600091509050806000018054600181600116156101000203166002900480601f0160208091040260200160405190810160405280929190818152602001828054600181600116156101000203166002900480156104f75780601f106104cc576101008083540402835291602001916104f7565b820191906000526020600020905b8154815290600101906020018083116104da57829003601f168201915b505050505090806001018054600181600116156101000203166002900480601f0160208091040260200160405190810160405280929190818152602001828054600181600116156101000203166002900480156105955780601f1061056a57610100808354040283529160200191610595565b820191906000526020600020905b81548152906001019060200180831161057857829003601f168201915b5050505050908060020154908060030160009054906101000a900460ff16905084565b6105c06106b3565b15156105cb57600080fd5b600073ffffffffffffffffffffffffffffffffffffffff166000809054906101000a900473ffffffffffffffffffffffffffffffffffffffff1673ffffffffffffffffffffffffffffffffffffffff167f8be0079c531659141344cd1fd0a4f28419497f9722a3daafe3b4186f6b6457e060405160405180910390a360008060006101000a81548173ffffffffffffffffffffffffffffffffffffffff021916908373ffffffffffffffffffffffffffffffffffffffff160217905550565b60008060009054906101000a900473ffffffffffffffffffffffffffffffffffffffff16905090565b60008060009054906101000a900473ffffffffffffffffffffffffffffffffffffffff1673ffffffffffffffffffffffffffffffffffffffff163373ffffffffffffffffffffffffffffffffffffffff1614905090565b6107126106b3565b151561071d57600080fd5b61072681610729565b50565b600073ffffffffffffffffffffffffffffffffffffffff168173ffffffffffffffffffffffffffffffffffffffff161415151561076557600080fd5b8073ffffffffffffffffffffffffffffffffffffffff166000809054906101000a900473ffffffffffffffffffffffffffffffffffffffff1673ffffffffffffffffffffffffffffffffffffffff167f8be0079c531659141344cd1fd0a4f28419497f9722a3daafe3b4186f6b6457e060405160405180910390a3806000806101000a81548173ffffffffffffffffffffffffffffffffffffffff021916908373ffffffffffffffffffffffffffffffffffffffff160217905550505600a165627a7a7230582015de9af2407825350acac7fdab2de27e3fc36d6bf7781e5d21c9710a85b229090029",
  "source": "pragma solidity ^0.4.24;\nimport \"./Ownable.sol\";\nimport \"./SafeMath.sol\";\nimport \"./Status.sol\";\n\ncontract Items is Ownable, Stat{\n    using SafeMath for uint256;\n\n    struct Item{\n        string _name;\n        string _description;\n        uint _changeId;\n        Status _status;\n    }\n\n    //data\n    Item[] public _items;\n    mapping (uint => address) public itemToOwner;\n    mapping (address => uint) ownerItemCount;\n\n    function _createItem(string memory name, string memory description) internal returns(uint) {\n        if (_items.length == 0) \n            _items.push(Item(\"[None]\", \"[First null element]\", 0, Status.POSTING));\n        uint id = _items.push(Item(name, description, 0, Status.POSTING))-1;\n        itemToOwner[id] = msg.sender;\n        ownerItemCount[msg.sender] = ownerItemCount[msg.sender].add(1);\n        return id;\n    }\n\n    function _changeWith(uint id1, uint id2) internal {\n        _items[id1]._changeId = id2;\n        _items[id1]._status = Status.MATCHED;\n        _items[id2]._changeId = id1;\n        _items[id2]._status = Status.MATCHED;\n    }\n\n    function _listItems(address _owner) internal view returns (uint[]) {\n        uint[] memory itemIds = new uint[](ownerItemCount[_owner]);\n        uint counter = 0;\n        for (uint i = 0; i < _items.length; i++) {\n            if (itemToOwner[i] == _owner && _items[i]._changeId == 0) {\n                itemIds[counter] = i;\n                counter++;\n            }\n        }\n        return itemIds;\n    }\n\n    function _listSize() internal view returns (uint) {\n        return _items.length;\n    }\n\n    function _item(uint i, address _owner) internal view returns (string memory, string memory) {\n        if (_owner == itemToOwner[i] && _items[i]._status == Status.POSTING) {\n            return (_items[i]._name, _items[i]._description );\n        }\n        else {\n            return (\"\", \"\");\n        }\n    }\n\n    function _getMatchItems(address user) internal view returns (uint[] memory) {\n        uint[] memory itemIds = new uint[](_items.length);\n        uint counter = 0;\n        for (uint i = 1; i < _items.length; i++) {\n            if (itemToOwner[i] != user && _items[i]._status == Status.POSTING) {\n                itemIds[counter] = i;\n                counter++;\n            }\n        }\n        return itemIds;\n    }\n}",
  "sourcePath": "/Users/kouniwa/Desktop/bello/NMLab/barter_DAPP/react-box/contracts/Items.sol",
  "compiler": {
    "name": "solc",
    "version": "0.4.24+commit.e67f0147.Emscripten.clang"
  },
  "schemaVersion": "2.0.1",
  "updatedAt": "2019-01-12T15:57:14.591Z"
}