{
  "contractName": "Items",
  "abi": [
    {
      "constant": true,
      "inputs": [
        {
          "name": "",
          "type": "uint256"
        }
      ],
      "name": "itemToOwner",
      "outputs": [
        {
          "name": "",
          "type": "address"
        }
      ],
      "payable": false,
      "stateMutability": "view",
      "type": "function"
    },
    {
      "constant": true,
      "inputs": [
        {
          "name": "status",
          "type": "uint8"
        }
      ],
      "name": "isPosting",
      "outputs": [
        {
          "name": "",
          "type": "bool"
        }
      ],
      "payable": false,
      "stateMutability": "view",
      "type": "function"
    },
    {
      "constant": true,
      "inputs": [
        {
          "name": "status",
          "type": "uint8"
        }
      ],
      "name": "isMatched",
      "outputs": [
        {
          "name": "",
          "type": "bool"
        }
      ],
      "payable": false,
      "stateMutability": "view",
      "type": "function"
    },
    {
      "constant": true,
      "inputs": [
        {
          "name": "",
          "type": "uint256"
        }
      ],
      "name": "_items",
      "outputs": [
        {
          "name": "_name",
          "type": "string"
        },
        {
          "name": "_description",
          "type": "string"
        },
        {
          "name": "_changeId",
          "type": "uint256"
        },
        {
          "name": "_status",
          "type": "uint8"
        }
      ],
      "payable": false,
      "stateMutability": "view",
      "type": "function"
    },
    {
      "constant": false,
      "inputs": [],
      "name": "renounceOwnership",
      "outputs": [],
      "payable": false,
      "stateMutability": "nonpayable",
      "type": "function"
    },
    {
      "constant": true,
      "inputs": [],
      "name": "owner",
      "outputs": [
        {
          "name": "",
          "type": "address"
        }
      ],
      "payable": false,
      "stateMutability": "view",
      "type": "function"
    },
    {
      "constant": true,
      "inputs": [],
      "name": "isOwner",
      "outputs": [
        {
          "name": "",
          "type": "bool"
        }
      ],
      "payable": false,
      "stateMutability": "view",
      "type": "function"
    },
    {
      "constant": false,
      "inputs": [
        {
          "name": "newOwner",
          "type": "address"
        }
      ],
      "name": "transferOwnership",
      "outputs": [],
      "payable": false,
      "stateMutability": "nonpayable",
      "type": "function"
    },
    {
      "anonymous": false,
      "inputs": [
        {
          "indexed": true,
          "name": "previousOwner",
          "type": "address"
        },
        {
          "indexed": true,
          "name": "newOwner",
          "type": "address"
        }
      ],
      "name": "OwnershipTransferred",
      "type": "event"
    }
  ],
  "bytecode": "0x6080604052336000806101000a81548173ffffffffffffffffffffffffffffffffffffffff021916908373ffffffffffffffffffffffffffffffffffffffff1602179055506000809054906101000a900473ffffffffffffffffffffffffffffffffffffffff1673ffffffffffffffffffffffffffffffffffffffff16600073ffffffffffffffffffffffffffffffffffffffff167f8be0079c531659141344cd1fd0a4f28419497f9722a3daafe3b4186f6b6457e060405160405180910390a3610895806100cf6000396000f3fe60806040526004361061008e576000357c0100000000000000000000000000000000000000000000000000000000900463ffffffff1680631a4d96cd146100935780631a614f081461010e5780631c4aedcb1461016457806344029410146101ba578063715018a6146102f65780638da5cb5b1461030d5780638f32d59b14610364578063f2fde38b14610393575b600080fd5b34801561009f57600080fd5b506100cc600480360360208110156100b657600080fd5b81019080803590602001909291905050506103e4565b604051808273ffffffffffffffffffffffffffffffffffffffff1673ffffffffffffffffffffffffffffffffffffffff16815260200191505060405180910390f35b34801561011a57600080fd5b5061014a6004803603602081101561013157600080fd5b81019080803560ff169060200190929190505050610417565b604051808215151515815260200191505060405180910390f35b34801561017057600080fd5b506101a06004803603602081101561018757600080fd5b81019080803560ff16906020019092919050505061044d565b604051808215151515815260200191505060405180910390f35b3480156101c657600080fd5b506101f3600480360360208110156101dd57600080fd5b8101908080359060200190929190505050610482565b60405180806020018060200185815260200184600181111561021157fe5b60ff168152602001838103835287818151815260200191508051906020019080838360005b83811015610251578082015181840152602081019050610236565b50505050905090810190601f16801561027e5780820380516001836020036101000a031916815260200191505b50838103825286818151815260200191508051906020019080838360005b838110156102b757808201518184015260208101905061029c565b50505050905090810190601f1680156102e45780820380516001836020036101000a031916815260200191505b50965050505050505060405180910390f35b34801561030257600080fd5b5061030b6105fe565b005b34801561031957600080fd5b506103226106d0565b604051808273ffffffffffffffffffffffffffffffffffffffff1673ffffffffffffffffffffffffffffffffffffffff16815260200191505060405180910390f35b34801561037057600080fd5b506103796106f9565b604051808215151515815260200191505060405180910390f35b34801561039f57600080fd5b506103e2600480360360208110156103b657600080fd5b81019080803573ffffffffffffffffffffffffffffffffffffffff169060200190929190505050610750565b005b60026020528060005260406000206000915054906101000a900473ffffffffffffffffffffffffffffffffffffffff1681565b60006104216106f9565b151561042c57600080fd5b6000600181111561043957fe5b82600181111561044557fe5b149050919050565b60006104576106f9565b151561046257600080fd5b60018081111561046e57fe5b82600181111561047a57fe5b149050919050565b60018181548110151561049157fe5b9060005260206000209060040201600091509050806000018054600181600116156101000203166002900480601f01602080910402602001604051908101604052809291908181526020018280546001816001161561010002031660029004801561053d5780601f106105125761010080835404028352916020019161053d565b820191906000526020600020905b81548152906001019060200180831161052057829003601f168201915b505050505090806001018054600181600116156101000203166002900480601f0160208091040260200160405190810160405280929190818152602001828054600181600116156101000203166002900480156105db5780601f106105b0576101008083540402835291602001916105db565b820191906000526020600020905b8154815290600101906020018083116105be57829003601f168201915b5050505050908060020154908060030160009054906101000a900460ff16905084565b6106066106f9565b151561061157600080fd5b600073ffffffffffffffffffffffffffffffffffffffff166000809054906101000a900473ffffffffffffffffffffffffffffffffffffffff1673ffffffffffffffffffffffffffffffffffffffff167f8be0079c531659141344cd1fd0a4f28419497f9722a3daafe3b4186f6b6457e060405160405180910390a360008060006101000a81548173ffffffffffffffffffffffffffffffffffffffff021916908373ffffffffffffffffffffffffffffffffffffffff160217905550565b60008060009054906101000a900473ffffffffffffffffffffffffffffffffffffffff16905090565b60008060009054906101000a900473ffffffffffffffffffffffffffffffffffffffff1673ffffffffffffffffffffffffffffffffffffffff163373ffffffffffffffffffffffffffffffffffffffff1614905090565b6107586106f9565b151561076357600080fd5b61076c8161076f565b50565b600073ffffffffffffffffffffffffffffffffffffffff168173ffffffffffffffffffffffffffffffffffffffff16141515156107ab57600080fd5b8073ffffffffffffffffffffffffffffffffffffffff166000809054906101000a900473ffffffffffffffffffffffffffffffffffffffff1673ffffffffffffffffffffffffffffffffffffffff167f8be0079c531659141344cd1fd0a4f28419497f9722a3daafe3b4186f6b6457e060405160405180910390a3806000806101000a81548173ffffffffffffffffffffffffffffffffffffffff021916908373ffffffffffffffffffffffffffffffffffffffff1602179055505056fea165627a7a7230582061140b974ee2dc5897071e06b5d8ff2546ade84afd257e989c22dc1ac6ee09a00029",
  "source": "pragma solidity ^0.5.0;\nimport \"./Ownable.sol\";\nimport \"./SafeMath.sol\";\nimport \"./Status.sol\";\n\ncontract Items is Ownable, Stat{\n    using SafeMath for uint256;\n\n    struct Item{\n        string _name;\n        string _description;\n        uint _changeId;\n        Status _status;\n        // uint[] _preferItem;\n    }\n\n    //data\n    Item[] public _items;\n    mapping (uint => address) public itemToOwner;\n    mapping (address => uint) ownerItemCount;\n\n    function _createItem(string memory name, string memory description) internal returns(uint) {\n        if (_items.length == 0) \n            _items.push(Item(\"[None]\", \"[First null element]\", 0, Status.POSTING));\n        uint id = _items.push(Item(name, description, 0, Status.POSTING))-1;\n        itemToOwner[id] = msg.sender;\n        ownerItemCount[msg.sender] = ownerItemCount[msg.sender].add(1);\n        return id;\n    }\n\n    function _changeWith(uint id1, uint id2) internal {\n        _items[id1]._changeId = id2;\n        _items[id1]._status = Status.MATCHED;\n        _items[id2]._changeId = id1;\n        _items[id2]._status = Status.MATCHED;\n    }\n\n    function _listItems(address _owner) internal view returns (uint[] memory) {\n        uint[] memory itemIds = new uint[](ownerItemCount[_owner]);\n        uint counter = 0;\n        for (uint i = 0; i < _items.length; i++) {\n            if (itemToOwner[i] == _owner && _items[i]._changeId == 0) {\n                itemIds[counter] = i;\n                counter++;\n            }\n        }\n        return itemIds;\n    }\n\n    function _listSize() internal view returns (uint) {\n        return _items.length;\n    }\n\n    function _item(uint i, address _owner) internal view returns (string memory, string memory) {\n        if (_owner == itemToOwner[i] && _items[i]._status == Status.POSTING) {\n            return (_items[i]._name, _items[i]._description );\n        }\n        else {\n            return (\"\", \"\");\n        }\n    }\n\n    function _getMatchItems(address user) internal view returns (uint[] memory) {\n        uint[] memory itemIds = new uint[](_items.length);\n        uint counter = 0;\n        for (uint i = 1; i < _items.length; i++) {\n            if (itemToOwner[i] != user && _items[i]._status == Status.POSTING) {\n                itemIds[counter] = i;\n                counter++;\n            }\n        }\n        return itemIds;\n    }\n\n    // function _addPreferAndCheck(uint id, uint preferId) internal view returns(bool){\n    //     for (uint i = 0; i < _items[preferId]._preferItem.length; i++) {\n    //         if (_items[preferId]._preferItem[i] == id && _items[preferId]._status == Status.POSTING) {\n    //             _changeWith(id, preferId);\n    //             return true;\n    //         }\n    //     }\n    //     _items[id]._preferItem.push(preferId);\n    //     return false;\n    // }\n}",
  "sourcePath": "/home/tpemist/Desktop/clone/barter_DAPP/react-box/contracts/Items.sol",
  "compiler": {
    "name": "solc",
    "version": "0.5.0+commit.1d4f565a.Emscripten.clang"
  },
  "schemaVersion": "3.0.1",
  "updatedAt": "2019-01-13T08:48:55.169Z",
  "devdoc": {
    "methods": {
      "isOwner()": {
        "return": "true if `msg.sender` is the owner of the contract."
      },
      "owner()": {
        "return": "the address of the owner."
      },
      "renounceOwnership()": {
        "details": "Allows the current owner to relinquish control of the contract."
      },
      "transferOwnership(address)": {
        "details": "Allows the current owner to transfer control of the contract to a newOwner.",
        "params": {
          "newOwner": "The address to transfer ownership to."
        }
      }
    }
  },
  "userdoc": {
    "methods": {
      "renounceOwnership()": {
        "notice": "Renouncing to ownership will leave the contract without an owner. It will not be possible to call the functions with the `onlyOwner` modifier anymore."
      }
    }
  }
}