{
  "contractName": "Platform",
  "abi": [
    {
      "constant": true,
      "inputs": [
        {
          "name": "",
          "type": "uint256"
        }
      ],
      "name": "itemToOwner",
      "outputs": [
        {
          "name": "",
          "type": "address"
        }
      ],
      "payable": false,
      "stateMutability": "view",
      "type": "function"
    },
    {
      "constant": true,
      "inputs": [
        {
          "name": "status",
          "type": "uint8"
        }
      ],
      "name": "isPosting",
      "outputs": [
        {
          "name": "",
          "type": "bool"
        }
      ],
      "payable": false,
      "stateMutability": "view",
      "type": "function"
    },
    {
      "constant": true,
      "inputs": [
        {
          "name": "status",
          "type": "uint8"
        }
      ],
      "name": "isMatched",
      "outputs": [
        {
          "name": "",
          "type": "bool"
        }
      ],
      "payable": false,
      "stateMutability": "view",
      "type": "function"
    },
    {
      "constant": true,
      "inputs": [
        {
          "name": "",
          "type": "uint256"
        }
      ],
      "name": "_items",
      "outputs": [
        {
          "name": "_name",
          "type": "string"
        },
        {
          "name": "_description",
          "type": "string"
        },
        {
          "name": "_changeId",
          "type": "uint256"
        },
        {
          "name": "_status",
          "type": "uint8"
        }
      ],
      "payable": false,
      "stateMutability": "view",
      "type": "function"
    },
    {
      "constant": false,
      "inputs": [],
      "name": "renounceOwnership",
      "outputs": [],
      "payable": false,
      "stateMutability": "nonpayable",
      "type": "function"
    },
    {
      "constant": true,
      "inputs": [],
      "name": "owner",
      "outputs": [
        {
          "name": "",
          "type": "address"
        }
      ],
      "payable": false,
      "stateMutability": "view",
      "type": "function"
    },
    {
      "constant": true,
      "inputs": [],
      "name": "isOwner",
      "outputs": [
        {
          "name": "",
          "type": "bool"
        }
      ],
      "payable": false,
      "stateMutability": "view",
      "type": "function"
    },
    {
      "constant": false,
      "inputs": [
        {
          "name": "newOwner",
          "type": "address"
        }
      ],
      "name": "transferOwnership",
      "outputs": [],
      "payable": false,
      "stateMutability": "nonpayable",
      "type": "function"
    },
    {
      "anonymous": false,
      "inputs": [
        {
          "indexed": true,
          "name": "previousOwner",
          "type": "address"
        },
        {
          "indexed": true,
          "name": "newOwner",
          "type": "address"
        }
      ],
      "name": "OwnershipTransferred",
      "type": "event"
    },
    {
      "constant": false,
      "inputs": [
        {
          "name": "name",
          "type": "string"
        },
        {
          "name": "description",
          "type": "string"
        }
      ],
      "name": "newItem",
      "outputs": [],
      "payable": true,
      "stateMutability": "payable",
      "type": "function"
    },
    {
      "constant": false,
      "inputs": [
        {
          "name": "id1",
          "type": "uint256"
        },
        {
          "name": "id2",
          "type": "uint256"
        }
      ],
      "name": "changeItem",
      "outputs": [],
      "payable": true,
      "stateMutability": "payable",
      "type": "function"
    },
    {
      "constant": true,
      "inputs": [],
      "name": "listUserItem",
      "outputs": [
        {
          "name": "",
          "type": "uint256[]"
        }
      ],
      "payable": false,
      "stateMutability": "view",
      "type": "function"
    },
    {
      "constant": true,
      "inputs": [
        {
          "name": "name",
          "type": "string"
        }
      ],
      "name": "getItem",
      "outputs": [
        {
          "name": "",
          "type": "string"
        },
        {
          "name": "",
          "type": "string"
        }
      ],
      "payable": false,
      "stateMutability": "view",
      "type": "function"
    }
  ],
  "bytecode": "0x6080604052336000806101000a81548173ffffffffffffffffffffffffffffffffffffffff021916908373ffffffffffffffffffffffffffffffffffffffff1602179055506000809054906101000a900473ffffffffffffffffffffffffffffffffffffffff1673ffffffffffffffffffffffffffffffffffffffff16600073ffffffffffffffffffffffffffffffffffffffff167f8be0079c531659141344cd1fd0a4f28419497f9722a3daafe3b4186f6b6457e060405160405180910390a3611412806100cf6000396000f3006080604052600436106100ba576000357c0100000000000000000000000000000000000000000000000000000000900463ffffffff1680631a4d96cd146100bf5780631a614f081461012c5780631c4aedcb1461017457806344029410146101bc578063715018a6146102ea5780638da5cb5b146103015780638f32d59b14610358578063a3d835c014610387578063b0b7e8ae146103cd578063b6010fcd146103f7578063bf103e0314610517578063f2fde38b14610583575b600080fd5b3480156100cb57600080fd5b506100ea600480360381019080803590602001909291905050506105c6565b604051808273ffffffffffffffffffffffffffffffffffffffff1673ffffffffffffffffffffffffffffffffffffffff16815260200191505060405180910390f35b34801561013857600080fd5b5061015a600480360381019080803560ff1690602001909291905050506105f9565b604051808215151515815260200191505060405180910390f35b34801561018057600080fd5b506101a2600480360381019080803560ff16906020019092919050505061062f565b604051808215151515815260200191505060405180910390f35b3480156101c857600080fd5b506101e760048036038101908080359060200190929190505050610664565b60405180806020018060200185815260200184600181111561020557fe5b60ff168152602001838103835287818151815260200191508051906020019080838360005b8381101561024557808201518184015260208101905061022a565b50505050905090810190601f1680156102725780820380516001836020036101000a031916815260200191505b50838103825286818151815260200191508051906020019080838360005b838110156102ab578082015181840152602081019050610290565b50505050905090810190601f1680156102d85780820380516001836020036101000a031916815260200191505b50965050505050505060405180910390f35b3480156102f657600080fd5b506102ff6107e0565b005b34801561030d57600080fd5b506103166108b2565b604051808273ffffffffffffffffffffffffffffffffffffffff1673ffffffffffffffffffffffffffffffffffffffff16815260200191505060405180910390f35b34801561036457600080fd5b5061036d6108db565b604051808215151515815260200191505060405180910390f35b6103cb600480360381019080803590602001908201803590602001919091929391929390803590602001908201803590602001919091929391929390505050610932565b005b6103f560048036038101908080359060200190929190803590602001909291905050506109a6565b005b34801561040357600080fd5b506104306004803603810190808035906020019082018035906020019190919293919293905050506109b4565b604051808060200180602001838103835285818151815260200191508051906020019080838360005b83811015610474578082015181840152602081019050610459565b50505050905090810190601f1680156104a15780820380516001836020036101000a031916815260200191505b50838103825284818151815260200191508051906020019080838360005b838110156104da5780820151818401526020810190506104bf565b50505050905090810190601f1680156105075780820380516001836020036101000a031916815260200191505b5094505050505060405180910390f35b34801561052357600080fd5b5061052c610cec565b6040518080602001828103825283818151815260200191508051906020019060200280838360005b8381101561056f578082015181840152602081019050610554565b505050509050019250505060405180910390f35b34801561058f57600080fd5b506105c4600480360381019080803573ffffffffffffffffffffffffffffffffffffffff169060200190929190505050610cfb565b005b60026020528060005260406000206000915054906101000a900473ffffffffffffffffffffffffffffffffffffffff1681565b60006106036108db565b151561060e57600080fd5b6000600181111561061b57fe5b82600181111561062757fe5b149050919050565b60006106396108db565b151561064457600080fd5b60018081111561065057fe5b82600181111561065c57fe5b149050919050565b60018181548110151561067357fe5b9060005260206000209060040201600091509050806000018054600181600116156101000203166002900480601f01602080910402602001604051908101604052809291908181526020018280546001816001161561010002031660029004801561071f5780601f106106f45761010080835404028352916020019161071f565b820191906000526020600020905b81548152906001019060200180831161070257829003601f168201915b505050505090806001018054600181600116156101000203166002900480601f0160208091040260200160405190810160405280929190818152602001828054600181600116156101000203166002900480156107bd5780601f10610792576101008083540402835291602001916107bd565b820191906000526020600020905b8154815290600101906020018083116107a057829003601f168201915b5050505050908060020154908060030160009054906101000a900460ff16905084565b6107e86108db565b15156107f357600080fd5b600073ffffffffffffffffffffffffffffffffffffffff166000809054906101000a900473ffffffffffffffffffffffffffffffffffffffff1673ffffffffffffffffffffffffffffffffffffffff167f8be0079c531659141344cd1fd0a4f28419497f9722a3daafe3b4186f6b6457e060405160405180910390a360008060006101000a81548173ffffffffffffffffffffffffffffffffffffffff021916908373ffffffffffffffffffffffffffffffffffffffff160217905550565b60008060009054906101000a900473ffffffffffffffffffffffffffffffffffffffff16905090565b60008060009054906101000a900473ffffffffffffffffffffffffffffffffffffffff1673ffffffffffffffffffffffffffffffffffffffff163373ffffffffffffffffffffffffffffffffffffffff1614905090565b6109a084848080601f01602080910402602001604051908101604052809392919081815260200183838082843782019150505050505083838080601f016020809104026020016040519081016040528093929190818152602001838380828437820191505050505050610d1a565b50505050565b6109b0828261101c565b5050565b60608060008090505b600180549050811015610ce3578484604051602001808383808284378201915050925050506040516020818303038152906040526040518082805190602001908083835b602083101515610a265780518252602082019150602081019050602083039250610a01565b6001836020036101000a038019825116818451168082178552505050505050905001915050604051809103902060001916600182815481101515610a6657fe5b90600052602060002090600402016000016040516020018082805460018160011615610100020316600290048015610ad55780601f10610ab3576101008083540402835291820191610ad5565b820191906000526020600020905b815481529060010190602001808311610ac1575b50509150506040516020818303038152906040526040518082805190602001908083835b602083101515610b1e5780518252602082019150602081019050602083039250610af9565b6001836020036101000a0380198251168184511680821785525050505050509050019150506040518091039020600019161415610cd657600181815481101515610b6457fe5b9060005260206000209060040201600001600182815481101515610b8457fe5b9060005260206000209060040201600101818054600181600116156101000203166002900480601f016020809104026020016040519081016040528092919081815260200182805460018160011615610100020316600290048015610c2a5780601f10610bff57610100808354040283529160200191610c2a565b820191906000526020600020905b815481529060010190602001808311610c0d57829003601f168201915b50505050509150808054600181600116156101000203166002900480601f016020809104026020016040519081016040528092919081815260200182805460018160011615610100020316600290048015610cc65780601f10610c9b57610100808354040283529160200191610cc6565b820191906000526020600020905b815481529060010190602001808311610ca957829003601f168201915b5050505050905092509250610ce4565b80806001019150506109bd565b5b509250929050565b6060610cf66110ec565b905090565b610d036108db565b1515610d0e57600080fd5b610d1781611226565b50565b6000806001805490501415610e605760016080604051908101604052806040805190810160405280600681526020017f5b4e6f6e655d000000000000000000000000000000000000000000000000000081525081526020016040805190810160405280601481526020017f5b4669727374206e756c6c20656c656d656e745d00000000000000000000000081525081526020016000815260200160006001811115610dc157fe5b815250908060018154018082558091505090600182039060005260206000209060040201600090919290919091506000820151816000019080519060200190610e0b929190611341565b506020820151816001019080519060200190610e28929190611341565b506040820151816002015560608201518160030160006101000a81548160ff02191690836001811115610e5757fe5b02179055505050505b6001806080604051908101604052808681526020018581526020016000815260200160006001811115610e8f57fe5b815250908060018154018082558091505090600182039060005260206000209060040201600090919290919091506000820151816000019080519060200190610ed9929190611341565b506020820151816001019080519060200190610ef6929190611341565b506040820151816002015560608201518160030160006101000a81548160ff02191690836001811115610f2557fe5b02179055505050039050336002600083815260200190815260200160002060006101000a81548173ffffffffffffffffffffffffffffffffffffffff021916908373ffffffffffffffffffffffffffffffffffffffff160217905550610fd46001600360003373ffffffffffffffffffffffffffffffffffffffff1673ffffffffffffffffffffffffffffffffffffffff1681526020019081526020016000205461132090919063ffffffff16565b600360003373ffffffffffffffffffffffffffffffffffffffff1673ffffffffffffffffffffffffffffffffffffffff16815260200190815260200160002081905550505050565b8060018381548110151561102c57fe5b9060005260206000209060040201600201819055506001808381548110151561105157fe5b906000526020600020906004020160030160006101000a81548160ff0219169083600181111561107d57fe5b02179055508160018281548110151561109257fe5b906000526020600020906004020160020181905550600180828154811015156110b757fe5b906000526020600020906004020160030160006101000a81548160ff021916908360018111156110e357fe5b02179055505050565b6060600080600090505b6001805490508110156111cf573373ffffffffffffffffffffffffffffffffffffffff166002600083815260200190815260200160002060009054906101000a900473ffffffffffffffffffffffffffffffffffffffff1673ffffffffffffffffffffffffffffffffffffffff161480156111915750600060018281548110151561117d57fe5b906000526020600020906004020160020154145b156111c257818190806001815401808255809150509060018203906000526020600020016000909192909190915055505b80806001019150506110f6565b8180548060200260200160405190810160405280929190818152602001828054801561121a57602002820191906000526020600020905b815481526020019060010190808311611206575b50505050509250505090565b600073ffffffffffffffffffffffffffffffffffffffff168173ffffffffffffffffffffffffffffffffffffffff161415151561126257600080fd5b8073ffffffffffffffffffffffffffffffffffffffff166000809054906101000a900473ffffffffffffffffffffffffffffffffffffffff1673ffffffffffffffffffffffffffffffffffffffff167f8be0079c531659141344cd1fd0a4f28419497f9722a3daafe3b4186f6b6457e060405160405180910390a3806000806101000a81548173ffffffffffffffffffffffffffffffffffffffff021916908373ffffffffffffffffffffffffffffffffffffffff16021790555050565b600080828401905083811015151561133757600080fd5b8091505092915050565b828054600181600116156101000203166002900490600052602060002090601f016020900481019282601f1061138257805160ff19168380011785556113b0565b828001600101855582156113b0579182015b828111156113af578251825591602001919060010190611394565b5b5090506113bd91906113c1565b5090565b6113e391905b808211156113df5760008160009055506001016113c7565b5090565b905600a165627a7a723058205e7b439678568c6d18ace7679d9571d0c9c9e2071df8bf24639830bf07b7c1410029",
  "source": "pragma solidity ^0.4.24;\nimport \"./Items.sol\";\n\ncontract Platform is Items{\n\n    function newItem(string name, string description) external payable {\n        _createItem(name, description);\n    }\n\n    function changeItem(uint id1, uint id2) external payable{\n        _changeWith(id1, id2);\n    }\n\n    function listUserItem() external view returns (uint[] memory) {\n        return _listItems();\n    }\n\n    function getItem(string name) external view returns (string, string) {\n        for(uint i = 0; i < _items.length; i++) {\n            if(keccak256(abi.encodePacked(_items[i]._name)) == keccak256(abi.encodePacked(name))) {return (_items[i]._name, _items[i]._description); }\n        }\n    }\n\n\n}",
  "sourcePath": "/Users/kouniwa/Desktop/bello/NMLab/barter_DAPP/react-box/contracts/Platform.sol",
  "compiler": {
    "name": "solc",
    "version": "0.4.24+commit.e67f0147.Emscripten.clang"
  },
  "schemaVersion": "2.0.1",
  "updatedAt": "2019-01-12T06:10:23.080Z"
}