{
  "contractName": "Platform",
  "abi": [
    {
      "constant": true,
      "inputs": [
        {
          "name": "",
          "type": "uint256"
        }
      ],
      "name": "itemToOwner",
      "outputs": [
        {
          "name": "",
          "type": "address"
        }
      ],
      "payable": false,
      "stateMutability": "view",
      "type": "function"
    },
    {
      "constant": true,
      "inputs": [
        {
          "name": "status",
          "type": "uint8"
        }
      ],
      "name": "isPosting",
      "outputs": [
        {
          "name": "",
          "type": "bool"
        }
      ],
      "payable": false,
      "stateMutability": "view",
      "type": "function"
    },
    {
      "constant": true,
      "inputs": [
        {
          "name": "status",
          "type": "uint8"
        }
      ],
      "name": "isMatched",
      "outputs": [
        {
          "name": "",
          "type": "bool"
        }
      ],
      "payable": false,
      "stateMutability": "view",
      "type": "function"
    },
    {
      "constant": true,
      "inputs": [
        {
          "name": "",
          "type": "uint256"
        }
      ],
      "name": "_items",
      "outputs": [
        {
          "name": "_name",
          "type": "string"
        },
        {
          "name": "_description",
          "type": "string"
        },
        {
          "name": "_changeId",
          "type": "uint256"
        },
        {
          "name": "_status",
          "type": "uint8"
        }
      ],
      "payable": false,
      "stateMutability": "view",
      "type": "function"
    },
    {
      "constant": false,
      "inputs": [],
      "name": "renounceOwnership",
      "outputs": [],
      "payable": false,
      "stateMutability": "nonpayable",
      "type": "function"
    },
    {
      "constant": true,
      "inputs": [],
      "name": "owner",
      "outputs": [
        {
          "name": "",
          "type": "address"
        }
      ],
      "payable": false,
      "stateMutability": "view",
      "type": "function"
    },
    {
      "constant": true,
      "inputs": [],
      "name": "isOwner",
      "outputs": [
        {
          "name": "",
          "type": "bool"
        }
      ],
      "payable": false,
      "stateMutability": "view",
      "type": "function"
    },
    {
      "constant": false,
      "inputs": [
        {
          "name": "newOwner",
          "type": "address"
        }
      ],
      "name": "transferOwnership",
      "outputs": [],
      "payable": false,
      "stateMutability": "nonpayable",
      "type": "function"
    },
    {
      "anonymous": false,
      "inputs": [
        {
          "indexed": true,
          "name": "previousOwner",
          "type": "address"
        },
        {
          "indexed": true,
          "name": "newOwner",
          "type": "address"
        }
      ],
      "name": "OwnershipTransferred",
      "type": "event"
    },
    {
      "constant": false,
      "inputs": [
        {
          "name": "name",
          "type": "string"
        },
        {
          "name": "description",
          "type": "string"
        }
      ],
      "name": "newItem",
      "outputs": [],
      "payable": true,
      "stateMutability": "payable",
      "type": "function"
    },
    {
      "constant": false,
      "inputs": [
        {
          "name": "id1",
          "type": "uint256"
        },
        {
          "name": "id2",
          "type": "uint256"
        }
      ],
      "name": "changeItem",
      "outputs": [],
      "payable": true,
      "stateMutability": "payable",
      "type": "function"
    },
    {
      "constant": true,
      "inputs": [],
      "name": "listUserItem",
      "outputs": [
        {
          "name": "",
          "type": "uint256[]"
        }
      ],
      "payable": false,
      "stateMutability": "view",
      "type": "function"
    },
    {
      "constant": true,
      "inputs": [],
      "name": "getSize",
      "outputs": [
        {
          "name": "",
          "type": "uint256"
        }
      ],
      "payable": false,
      "stateMutability": "view",
      "type": "function"
    },
    {
      "constant": true,
      "inputs": [
        {
          "name": "i",
          "type": "uint256"
        }
      ],
      "name": "getItem",
      "outputs": [
        {
          "name": "",
          "type": "string"
        },
        {
          "name": "",
          "type": "string"
        }
      ],
      "payable": false,
      "stateMutability": "view",
      "type": "function"
    }
  ],
  "bytecode": "0x6080604052336000806101000a81548173ffffffffffffffffffffffffffffffffffffffff021916908373ffffffffffffffffffffffffffffffffffffffff1602179055506000809054906101000a900473ffffffffffffffffffffffffffffffffffffffff1673ffffffffffffffffffffffffffffffffffffffff16600073ffffffffffffffffffffffffffffffffffffffff167f8be0079c531659141344cd1fd0a4f28419497f9722a3daafe3b4186f6b6457e060405160405180910390a36113c3806100cf6000396000f3006080604052600436106100c5576000357c0100000000000000000000000000000000000000000000000000000000900463ffffffff1680631a4d96cd146100ca5780631a614f08146101375780631c4aedcb1461017f5780633129e773146101c757806344029410146102d9578063715018a6146104075780638da5cb5b1461041e5780638f32d59b14610475578063a3d835c0146104a4578063b0b7e8ae146104ea578063bf103e0314610514578063de8fa43114610580578063f2fde38b146105ab575b600080fd5b3480156100d657600080fd5b506100f5600480360381019080803590602001909291905050506105ee565b604051808273ffffffffffffffffffffffffffffffffffffffff1673ffffffffffffffffffffffffffffffffffffffff16815260200191505060405180910390f35b34801561014357600080fd5b50610165600480360381019080803560ff169060200190929190505050610621565b604051808215151515815260200191505060405180910390f35b34801561018b57600080fd5b506101ad600480360381019080803560ff169060200190929190505050610657565b604051808215151515815260200191505060405180910390f35b3480156101d357600080fd5b506101f26004803603810190808035906020019092919050505061068c565b604051808060200180602001838103835285818151815260200191508051906020019080838360005b8381101561023657808201518184015260208101905061021b565b50505050905090810190601f1680156102635780820380516001836020036101000a031916815260200191505b50838103825284818151815260200191508051906020019080838360005b8381101561029c578082015181840152602081019050610281565b50505050905090810190601f1680156102c95780820380516001836020036101000a031916815260200191505b5094505050505060405180910390f35b3480156102e557600080fd5b50610304600480360381019080803590602001909291905050506106a2565b60405180806020018060200185815260200184600181111561032257fe5b60ff168152602001838103835287818151815260200191508051906020019080838360005b83811015610362578082015181840152602081019050610347565b50505050905090810190601f16801561038f5780820380516001836020036101000a031916815260200191505b50838103825286818151815260200191508051906020019080838360005b838110156103c85780820151818401526020810190506103ad565b50505050905090810190601f1680156103f55780820380516001836020036101000a031916815260200191505b50965050505050505060405180910390f35b34801561041357600080fd5b5061041c61081e565b005b34801561042a57600080fd5b506104336108f0565b604051808273ffffffffffffffffffffffffffffffffffffffff1673ffffffffffffffffffffffffffffffffffffffff16815260200191505060405180910390f35b34801561048157600080fd5b5061048a610919565b604051808215151515815260200191505060405180910390f35b6104e8600480360381019080803590602001908201803590602001919091929391929390803590602001908201803590602001919091929391929390505050610970565b005b61051260048036038101908080359060200190929190803590602001909291905050506109e5565b005b34801561052057600080fd5b506105296109f3565b6040518080602001828103825283818151815260200191508051906020019060200280838360005b8381101561056c578082015181840152602081019050610551565b505050509050019250505060405180910390f35b34801561058c57600080fd5b50610595610a03565b6040518082815260200191505060405180910390f35b3480156105b757600080fd5b506105ec600480360381019080803573ffffffffffffffffffffffffffffffffffffffff169060200190929190505050610a12565b005b60026020528060005260406000206000915054906101000a900473ffffffffffffffffffffffffffffffffffffffff1681565b600061062b610919565b151561063657600080fd5b6000600181111561064357fe5b82600181111561064f57fe5b149050919050565b6000610661610919565b151561066c57600080fd5b60018081111561067857fe5b82600181111561068457fe5b149050919050565b6060806106998333610a31565b91509150915091565b6001818154811015156106b157fe5b9060005260206000209060040201600091509050806000018054600181600116156101000203166002900480601f01602080910402602001604051908101604052809291908181526020018280546001816001161561010002031660029004801561075d5780601f106107325761010080835404028352916020019161075d565b820191906000526020600020905b81548152906001019060200180831161074057829003601f168201915b505050505090806001018054600181600116156101000203166002900480601f0160208091040260200160405190810160405280929190818152602001828054600181600116156101000203166002900480156107fb5780601f106107d0576101008083540402835291602001916107fb565b820191906000526020600020905b8154815290600101906020018083116107de57829003601f168201915b5050505050908060020154908060030160009054906101000a900460ff16905084565b610826610919565b151561083157600080fd5b600073ffffffffffffffffffffffffffffffffffffffff166000809054906101000a900473ffffffffffffffffffffffffffffffffffffffff1673ffffffffffffffffffffffffffffffffffffffff167f8be0079c531659141344cd1fd0a4f28419497f9722a3daafe3b4186f6b6457e060405160405180910390a360008060006101000a81548173ffffffffffffffffffffffffffffffffffffffff021916908373ffffffffffffffffffffffffffffffffffffffff160217905550565b60008060009054906101000a900473ffffffffffffffffffffffffffffffffffffffff16905090565b60008060009054906101000a900473ffffffffffffffffffffffffffffffffffffffff1673ffffffffffffffffffffffffffffffffffffffff163373ffffffffffffffffffffffffffffffffffffffff1614905090565b6109df84848080601f01602080910402602001604051908101604052809392919081815260200183838082843782019150505050505083838080601f01602080910402602001604051908101604052809392919081815260200183838082843782019150505050505033610c99565b50505050565b6109ef8282610f9c565b5050565b60606109fe3361106c565b905090565b6000610a0d6111ca565b905090565b610a1a610919565b1515610a2557600080fd5b610a2e816111d7565b50565b6060806002600085815260200190815260200160002060009054906101000a900473ffffffffffffffffffffffffffffffffffffffff1673ffffffffffffffffffffffffffffffffffffffff168373ffffffffffffffffffffffffffffffffffffffff16148015610ae5575060006001811115610aaa57fe5b600185815481101515610ab957fe5b906000526020600020906004020160030160009054906101000a900460ff166001811115610ae357fe5b145b15610c6b57600184815481101515610af957fe5b9060005260206000209060040201600001600185815481101515610b1957fe5b9060005260206000209060040201600101818054600181600116156101000203166002900480601f016020809104026020016040519081016040528092919081815260200182805460018160011615610100020316600290048015610bbf5780601f10610b9457610100808354040283529160200191610bbf565b820191906000526020600020905b815481529060010190602001808311610ba257829003601f168201915b50505050509150808054600181600116156101000203166002900480601f016020809104026020016040519081016040528092919081815260200182805460018160011615610100020316600290048015610c5b5780601f10610c3057610100808354040283529160200191610c5b565b820191906000526020600020905b815481529060010190602001808311610c3e57829003601f168201915b5050505050905091509150610c92565b60206040519081016040528060008152506020604051908101604052806000815250915091505b9250929050565b6000806001805490501415610ddf5760016080604051908101604052806040805190810160405280600681526020017f5b4e6f6e655d000000000000000000000000000000000000000000000000000081525081526020016040805190810160405280601481526020017f5b4669727374206e756c6c20656c656d656e745d00000000000000000000000081525081526020016000815260200160006001811115610d4057fe5b815250908060018154018082558091505090600182039060005260206000209060040201600090919290919091506000820151816000019080519060200190610d8a9291906112f2565b506020820151816001019080519060200190610da79291906112f2565b506040820151816002015560608201518160030160006101000a81548160ff02191690836001811115610dd657fe5b02179055505050505b6001806080604051908101604052808781526020018681526020016000815260200160006001811115610e0e57fe5b815250908060018154018082558091505090600182039060005260206000209060040201600090919290919091506000820151816000019080519060200190610e589291906112f2565b506020820151816001019080519060200190610e759291906112f2565b506040820151816002015560608201518160030160006101000a81548160ff02191690836001811115610ea457fe5b02179055505050039050816002600083815260200190815260200160002060006101000a81548173ffffffffffffffffffffffffffffffffffffffff021916908373ffffffffffffffffffffffffffffffffffffffff160217905550610f536001600360008573ffffffffffffffffffffffffffffffffffffffff1673ffffffffffffffffffffffffffffffffffffffff168152602001908152602001600020546112d190919063ffffffff16565b600360008473ffffffffffffffffffffffffffffffffffffffff1673ffffffffffffffffffffffffffffffffffffffff1681526020019081526020016000208190555050505050565b80600183815481101515610fac57fe5b90600052602060002090600402016002018190555060018083815481101515610fd157fe5b906000526020600020906004020160030160006101000a81548160ff02191690836001811115610ffd57fe5b02179055508160018281548110151561101257fe5b9060005260206000209060040201600201819055506001808281548110151561103757fe5b906000526020600020906004020160030160006101000a81548160ff0219169083600181111561106357fe5b02179055505050565b606080600080600360008673ffffffffffffffffffffffffffffffffffffffff1673ffffffffffffffffffffffffffffffffffffffff168152602001908152602001600020546040519080825280602002602001820160405280156110e05781602001602082028038833980820191505090505b50925060009150600090505b6001805490508110156111bf578473ffffffffffffffffffffffffffffffffffffffff166002600083815260200190815260200160002060009054906101000a900473ffffffffffffffffffffffffffffffffffffffff1673ffffffffffffffffffffffffffffffffffffffff161480156111875750600060018281548110151561117357fe5b906000526020600020906004020160020154145b156111b25780838381518110151561119b57fe5b906020019060200201818152505081806001019250505b80806001019150506110ec565b829350505050919050565b6000600180549050905090565b600073ffffffffffffffffffffffffffffffffffffffff168173ffffffffffffffffffffffffffffffffffffffff161415151561121357600080fd5b8073ffffffffffffffffffffffffffffffffffffffff166000809054906101000a900473ffffffffffffffffffffffffffffffffffffffff1673ffffffffffffffffffffffffffffffffffffffff167f8be0079c531659141344cd1fd0a4f28419497f9722a3daafe3b4186f6b6457e060405160405180910390a3806000806101000a81548173ffffffffffffffffffffffffffffffffffffffff021916908373ffffffffffffffffffffffffffffffffffffffff16021790555050565b60008082840190508381101515156112e857600080fd5b8091505092915050565b828054600181600116156101000203166002900490600052602060002090601f016020900481019282601f1061133357805160ff1916838001178555611361565b82800160010185558215611361579182015b82811115611360578251825591602001919060010190611345565b5b50905061136e9190611372565b5090565b61139491905b80821115611390576000816000905550600101611378565b5090565b905600a165627a7a72305820bc49f67e0180f0df1c82f3b60a74e8b7a99b0b1ee71ce5bb887d1f2dc97d03fb0029",
  "source": "pragma solidity ^0.4.24;\nimport \"./Items.sol\";\n\ncontract Platform is Items{\n\n    function newItem(string name, string description) external payable {\n        _createItem(name, description, msg.sender);\n    }\n\n    function changeItem(uint id1, uint id2) external payable{\n        _changeWith(id1, id2);\n    }\n\n    function listUserItem() external view returns (uint[]) {\n        return _listItems(msg.sender);\n    }\n\n    // function getItem(string name) external view returns (string, string) {\n    //     for(uint i = 0; i < _items.length; i++) {\n    //         if(keccak256(abi.encodePacked(_items[i]._name)) == keccak256(abi.encodePacked(name))) {return (_items[i]._name, _items[i]._description); }\n    //     }\n    // }\n\n    function getSize() external view returns (uint)  {\n        return _listSize();\n    }\n    \n    function getItem(uint i) external view returns (string memory, string memory) {\n        return _item(i, msg.sender);\n    }\n}",
  "sourcePath": "/Users/kouniwa/Desktop/bello/NMLab/barter_DAPP/react-box/contracts/Platform.sol",
  "compiler": {
    "name": "solc",
    "version": "0.4.24+commit.e67f0147.Emscripten.clang"
  },
  "schemaVersion": "2.0.1",
  "updatedAt": "2019-01-12T14:03:01.151Z"
}