{
  "contractName": "Platform",
  "abi": [
    {
      "constant": true,
      "inputs": [
        {
          "name": "",
          "type": "uint256"
        }
      ],
      "name": "itemToOwner",
      "outputs": [
        {
          "name": "",
          "type": "address"
        }
      ],
      "payable": false,
      "stateMutability": "view",
      "type": "function"
    },
    {
      "constant": true,
      "inputs": [
        {
          "name": "status",
          "type": "uint8"
        }
      ],
      "name": "isPosting",
      "outputs": [
        {
          "name": "",
          "type": "bool"
        }
      ],
      "payable": false,
      "stateMutability": "view",
      "type": "function"
    },
    {
      "constant": true,
      "inputs": [
        {
          "name": "status",
          "type": "uint8"
        }
      ],
      "name": "isMatched",
      "outputs": [
        {
          "name": "",
          "type": "bool"
        }
      ],
      "payable": false,
      "stateMutability": "view",
      "type": "function"
    },
    {
      "constant": true,
      "inputs": [
        {
          "name": "",
          "type": "uint256"
        }
      ],
      "name": "_items",
      "outputs": [
        {
          "name": "_name",
          "type": "string"
        },
        {
          "name": "_description",
          "type": "string"
        },
        {
          "name": "_changeId",
          "type": "uint256"
        },
        {
          "name": "_status",
          "type": "uint8"
        }
      ],
      "payable": false,
      "stateMutability": "view",
      "type": "function"
    },
    {
      "constant": false,
      "inputs": [],
      "name": "renounceOwnership",
      "outputs": [],
      "payable": false,
      "stateMutability": "nonpayable",
      "type": "function"
    },
    {
      "constant": true,
      "inputs": [],
      "name": "owner",
      "outputs": [
        {
          "name": "",
          "type": "address"
        }
      ],
      "payable": false,
      "stateMutability": "view",
      "type": "function"
    },
    {
      "constant": true,
      "inputs": [],
      "name": "isOwner",
      "outputs": [
        {
          "name": "",
          "type": "bool"
        }
      ],
      "payable": false,
      "stateMutability": "view",
      "type": "function"
    },
    {
      "constant": false,
      "inputs": [
        {
          "name": "newOwner",
          "type": "address"
        }
      ],
      "name": "transferOwnership",
      "outputs": [],
      "payable": false,
      "stateMutability": "nonpayable",
      "type": "function"
    },
    {
      "anonymous": false,
      "inputs": [
        {
          "indexed": true,
          "name": "previousOwner",
          "type": "address"
        },
        {
          "indexed": true,
          "name": "newOwner",
          "type": "address"
        }
      ],
      "name": "OwnershipTransferred",
      "type": "event"
    },
    {
      "constant": false,
      "inputs": [
        {
          "name": "name",
          "type": "string"
        },
        {
          "name": "description",
          "type": "string"
        }
      ],
      "name": "newItem",
      "outputs": [
        {
          "name": "",
          "type": "uint256"
        }
      ],
      "payable": true,
      "stateMutability": "payable",
      "type": "function"
    },
    {
      "constant": false,
      "inputs": [
        {
          "name": "id1",
          "type": "uint256"
        },
        {
          "name": "id2",
          "type": "uint256"
        }
      ],
      "name": "changeItem",
      "outputs": [],
      "payable": true,
      "stateMutability": "payable",
      "type": "function"
    },
    {
      "constant": true,
      "inputs": [],
      "name": "listUserItem",
      "outputs": [
        {
          "name": "",
          "type": "uint256[]"
        }
      ],
      "payable": false,
      "stateMutability": "view",
      "type": "function"
    },
    {
      "constant": true,
      "inputs": [],
      "name": "getSize",
      "outputs": [
        {
          "name": "",
          "type": "uint256"
        }
      ],
      "payable": false,
      "stateMutability": "view",
      "type": "function"
    },
    {
      "constant": true,
      "inputs": [
        {
          "name": "i",
          "type": "uint256"
        }
      ],
      "name": "getItem",
      "outputs": [
        {
          "name": "",
          "type": "string"
        },
        {
          "name": "",
          "type": "string"
        }
      ],
      "payable": false,
      "stateMutability": "view",
      "type": "function"
    },
    {
      "constant": true,
      "inputs": [
        {
          "name": "name",
          "type": "string"
        }
      ],
      "name": "getItem",
      "outputs": [
        {
          "name": "",
          "type": "string"
        },
        {
          "name": "",
          "type": "string"
        }
      ],
      "payable": false,
      "stateMutability": "view",
      "type": "function"
    },
    {
      "constant": true,
      "inputs": [],
      "name": "listMatchItems",
      "outputs": [
        {
          "name": "",
          "type": "uint256[]"
        }
      ],
      "payable": false,
      "stateMutability": "view",
      "type": "function"
    }
  ],
  "bytecode": "0x6080604052336000806101000a81548173ffffffffffffffffffffffffffffffffffffffff021916908373ffffffffffffffffffffffffffffffffffffffff1602179055506000809054906101000a900473ffffffffffffffffffffffffffffffffffffffff1673ffffffffffffffffffffffffffffffffffffffff16600073ffffffffffffffffffffffffffffffffffffffff167f8be0079c531659141344cd1fd0a4f28419497f9722a3daafe3b4186f6b6457e060405160405180910390a3611a14806100cf6000396000f3006080604052600436106100db576000357c0100000000000000000000000000000000000000000000000000000000900463ffffffff16806301bff832146100e05780631a4d96cd1461014c5780631a614f08146101b95780631c4aedcb146102015780633129e77314610249578063440294101461035b578063715018a6146104895780638da5cb5b146104a05780638f32d59b146104f7578063a3d835c014610526578063b0b7e8ae14610580578063b6010fcd146105aa578063bf103e03146106ca578063de8fa43114610736578063f2fde38b14610761575b600080fd5b3480156100ec57600080fd5b506100f56107a4565b6040518080602001828103825283818151815260200191508051906020019060200280838360005b8381101561013857808201518184015260208101905061011d565b505050509050019250505060405180910390f35b34801561015857600080fd5b50610177600480360381019080803590602001909291905050506107b4565b604051808273ffffffffffffffffffffffffffffffffffffffff1673ffffffffffffffffffffffffffffffffffffffff16815260200191505060405180910390f35b3480156101c557600080fd5b506101e7600480360381019080803560ff1690602001909291905050506107e7565b604051808215151515815260200191505060405180910390f35b34801561020d57600080fd5b5061022f600480360381019080803560ff16906020019092919050505061081d565b604051808215151515815260200191505060405180910390f35b34801561025557600080fd5b5061027460048036038101908080359060200190929190505050610852565b604051808060200180602001838103835285818151815260200191508051906020019080838360005b838110156102b857808201518184015260208101905061029d565b50505050905090810190601f1680156102e55780820380516001836020036101000a031916815260200191505b50838103825284818151815260200191508051906020019080838360005b8381101561031e578082015181840152602081019050610303565b50505050905090810190601f16801561034b5780820380516001836020036101000a031916815260200191505b5094505050505060405180910390f35b34801561036757600080fd5b5061038660048036038101908080359060200190929190505050610868565b6040518080602001806020018581526020018460018111156103a457fe5b60ff168152602001838103835287818151815260200191508051906020019080838360005b838110156103e45780820151818401526020810190506103c9565b50505050905090810190601f1680156104115780820380516001836020036101000a031916815260200191505b50838103825286818151815260200191508051906020019080838360005b8381101561044a57808201518184015260208101905061042f565b50505050905090810190601f1680156104775780820380516001836020036101000a031916815260200191505b50965050505050505060405180910390f35b34801561049557600080fd5b5061049e6109e4565b005b3480156104ac57600080fd5b506104b5610ab6565b604051808273ffffffffffffffffffffffffffffffffffffffff1673ffffffffffffffffffffffffffffffffffffffff16815260200191505060405180910390f35b34801561050357600080fd5b5061050c610adf565b604051808215151515815260200191505060405180910390f35b61056a600480360381019080803590602001908201803590602001919091929391929390803590602001908201803590602001919091929391929390505050610b36565b6040518082815260200191505060405180910390f35b6105a86004803603810190808035906020019092919080359060200190929190505050610bb0565b005b3480156105b657600080fd5b506105e3600480360381019080803590602001908201803590602001919091929391929390505050610bbe565b604051808060200180602001838103835285818151815260200191508051906020019080838360005b8381101561062757808201518184015260208101905061060c565b50505050905090810190601f1680156106545780820380516001836020036101000a031916815260200191505b50838103825284818151815260200191508051906020019080838360005b8381101561068d578082015181840152602081019050610672565b50505050905090810190601f1680156106ba5780820380516001836020036101000a031916815260200191505b5094505050505060405180910390f35b3480156106d657600080fd5b506106df610ef6565b6040518080602001828103825283818151815260200191508051906020019060200280838360005b83811015610722578082015181840152602081019050610707565b505050509050019250505060405180910390f35b34801561074257600080fd5b5061074b610f06565b6040518082815260200191505060405180910390f35b34801561076d57600080fd5b506107a2600480360381019080803573ffffffffffffffffffffffffffffffffffffffff169060200190929190505050610f15565b005b60606107af33610f34565b905090565b60026020528060005260406000206000915054906101000a900473ffffffffffffffffffffffffffffffffffffffff1681565b60006107f1610adf565b15156107fc57600080fd5b6000600181111561080957fe5b82600181111561081557fe5b149050919050565b6000610827610adf565b151561083257600080fd5b60018081111561083e57fe5b82600181111561084a57fe5b149050919050565b60608061085f833361107c565b91509150915091565b60018181548110151561087757fe5b9060005260206000209060040201600091509050806000018054600181600116156101000203166002900480601f0160208091040260200160405190810160405280929190818152602001828054600181600116156101000203166002900480156109235780601f106108f857610100808354040283529160200191610923565b820191906000526020600020905b81548152906001019060200180831161090657829003601f168201915b505050505090806001018054600181600116156101000203166002900480601f0160208091040260200160405190810160405280929190818152602001828054600181600116156101000203166002900480156109c15780601f10610996576101008083540402835291602001916109c1565b820191906000526020600020905b8154815290600101906020018083116109a457829003601f168201915b5050505050908060020154908060030160009054906101000a900460ff16905084565b6109ec610adf565b15156109f757600080fd5b600073ffffffffffffffffffffffffffffffffffffffff166000809054906101000a900473ffffffffffffffffffffffffffffffffffffffff1673ffffffffffffffffffffffffffffffffffffffff167f8be0079c531659141344cd1fd0a4f28419497f9722a3daafe3b4186f6b6457e060405160405180910390a360008060006101000a81548173ffffffffffffffffffffffffffffffffffffffff021916908373ffffffffffffffffffffffffffffffffffffffff160217905550565b60008060009054906101000a900473ffffffffffffffffffffffffffffffffffffffff16905090565b60008060009054906101000a900473ffffffffffffffffffffffffffffffffffffffff1673ffffffffffffffffffffffffffffffffffffffff163373ffffffffffffffffffffffffffffffffffffffff1614905090565b6000610ba685858080601f01602080910402602001604051908101604052809392919081815260200183838082843782019150505050505084848080601f0160208091040260200160405190810160405280939291908181526020018383808284378201915050505050506112e4565b9050949350505050565b610bba82826115ed565b5050565b60608060008090505b600180549050811015610eed578484604051602001808383808284378201915050925050506040516020818303038152906040526040518082805190602001908083835b602083101515610c305780518252602082019150602081019050602083039250610c0b565b6001836020036101000a038019825116818451168082178552505050505050905001915050604051809103902060001916600182815481101515610c7057fe5b90600052602060002090600402016000016040516020018082805460018160011615610100020316600290048015610cdf5780601f10610cbd576101008083540402835291820191610cdf565b820191906000526020600020905b815481529060010190602001808311610ccb575b50509150506040516020818303038152906040526040518082805190602001908083835b602083101515610d285780518252602082019150602081019050602083039250610d03565b6001836020036101000a0380198251168184511680821785525050505050509050019150506040518091039020600019161415610ee057600181815481101515610d6e57fe5b9060005260206000209060040201600001600182815481101515610d8e57fe5b9060005260206000209060040201600101818054600181600116156101000203166002900480601f016020809104026020016040519081016040528092919081815260200182805460018160011615610100020316600290048015610e345780601f10610e0957610100808354040283529160200191610e34565b820191906000526020600020905b815481529060010190602001808311610e1757829003601f168201915b50505050509150808054600181600116156101000203166002900480601f016020809104026020016040519081016040528092919081815260200182805460018160011615610100020316600290048015610ed05780601f10610ea557610100808354040283529160200191610ed0565b820191906000526020600020905b815481529060010190602001808311610eb357829003601f168201915b5050505050905092509250610eee565b8080600101915050610bc7565b5b509250929050565b6060610f01336116bd565b905090565b6000610f1061181b565b905090565b610f1d610adf565b1515610f2857600080fd5b610f3181611828565b50565b606080600080600180549050604051908082528060200260200182016040528015610f6e5781602001602082028038833980820191505090505b50925060009150600190505b600180549050811015611071578473ffffffffffffffffffffffffffffffffffffffff166002600083815260200190815260200160002060009054906101000a900473ffffffffffffffffffffffffffffffffffffffff1673ffffffffffffffffffffffffffffffffffffffff1614158015611039575060006001811115610ffe57fe5b60018281548110151561100d57fe5b906000526020600020906004020160030160009054906101000a900460ff16600181111561103757fe5b145b156110645780838381518110151561104d57fe5b906020019060200201818152505081806001019250505b8080600101915050610f7a565b829350505050919050565b6060806002600085815260200190815260200160002060009054906101000a900473ffffffffffffffffffffffffffffffffffffffff1673ffffffffffffffffffffffffffffffffffffffff168373ffffffffffffffffffffffffffffffffffffffff161480156111305750600060018111156110f557fe5b60018581548110151561110457fe5b906000526020600020906004020160030160009054906101000a900460ff16600181111561112e57fe5b145b156112b65760018481548110151561114457fe5b906000526020600020906004020160000160018581548110151561116457fe5b9060005260206000209060040201600101818054600181600116156101000203166002900480601f01602080910402602001604051908101604052809291908181526020018280546001816001161561010002031660029004801561120a5780601f106111df5761010080835404028352916020019161120a565b820191906000526020600020905b8154815290600101906020018083116111ed57829003601f168201915b50505050509150808054600181600116156101000203166002900480601f0160208091040260200160405190810160405280929190818152602001828054600181600116156101000203166002900480156112a65780601f1061127b576101008083540402835291602001916112a6565b820191906000526020600020905b81548152906001019060200180831161128957829003601f168201915b50505050509050915091506112dd565b60206040519081016040528060008152506020604051908101604052806000815250915091505b9250929050565b6000806000600180549050141561142c5760016080604051908101604052806040805190810160405280600681526020017f5b4e6f6e655d000000000000000000000000000000000000000000000000000081525081526020016040805190810160405280601481526020017f5b4669727374206e756c6c20656c656d656e745d0000000000000000000000008152508152602001600081526020016000600181111561138d57fe5b8152509080600181540180825580915050906001820390600052602060002090600402016000909192909190915060008201518160000190805190602001906113d7929190611943565b5060208201518160010190805190602001906113f4929190611943565b506040820151816002015560608201518160030160006101000a81548160ff0219169083600181111561142357fe5b02179055505050505b600180608060405190810160405280878152602001868152602001600081526020016000600181111561145b57fe5b8152509080600181540180825580915050906001820390600052602060002090600402016000909192909190915060008201518160000190805190602001906114a5929190611943565b5060208201518160010190805190602001906114c2929190611943565b506040820151816002015560608201518160030160006101000a81548160ff021916908360018111156114f157fe5b02179055505050039050336002600083815260200190815260200160002060006101000a81548173ffffffffffffffffffffffffffffffffffffffff021916908373ffffffffffffffffffffffffffffffffffffffff1602179055506115a06001600360003373ffffffffffffffffffffffffffffffffffffffff1673ffffffffffffffffffffffffffffffffffffffff1681526020019081526020016000205461192290919063ffffffff16565b600360003373ffffffffffffffffffffffffffffffffffffffff1673ffffffffffffffffffffffffffffffffffffffff168152602001908152602001600020819055508091505092915050565b806001838154811015156115fd57fe5b9060005260206000209060040201600201819055506001808381548110151561162257fe5b906000526020600020906004020160030160006101000a81548160ff0219169083600181111561164e57fe5b02179055508160018281548110151561166357fe5b9060005260206000209060040201600201819055506001808281548110151561168857fe5b906000526020600020906004020160030160006101000a81548160ff021916908360018111156116b457fe5b02179055505050565b606080600080600360008673ffffffffffffffffffffffffffffffffffffffff1673ffffffffffffffffffffffffffffffffffffffff168152602001908152602001600020546040519080825280602002602001820160405280156117315781602001602082028038833980820191505090505b50925060009150600090505b600180549050811015611810578473ffffffffffffffffffffffffffffffffffffffff166002600083815260200190815260200160002060009054906101000a900473ffffffffffffffffffffffffffffffffffffffff1673ffffffffffffffffffffffffffffffffffffffff161480156117d8575060006001828154811015156117c457fe5b906000526020600020906004020160020154145b15611803578083838151811015156117ec57fe5b906020019060200201818152505081806001019250505b808060010191505061173d565b829350505050919050565b6000600180549050905090565b600073ffffffffffffffffffffffffffffffffffffffff168173ffffffffffffffffffffffffffffffffffffffff161415151561186457600080fd5b8073ffffffffffffffffffffffffffffffffffffffff166000809054906101000a900473ffffffffffffffffffffffffffffffffffffffff1673ffffffffffffffffffffffffffffffffffffffff167f8be0079c531659141344cd1fd0a4f28419497f9722a3daafe3b4186f6b6457e060405160405180910390a3806000806101000a81548173ffffffffffffffffffffffffffffffffffffffff021916908373ffffffffffffffffffffffffffffffffffffffff16021790555050565b600080828401905083811015151561193957600080fd5b8091505092915050565b828054600181600116156101000203166002900490600052602060002090601f016020900481019282601f1061198457805160ff19168380011785556119b2565b828001600101855582156119b2579182015b828111156119b1578251825591602001919060010190611996565b5b5090506119bf91906119c3565b5090565b6119e591905b808211156119e15760008160009055506001016119c9565b5090565b905600a165627a7a723058208a4543e1b2566b4e3a02547d670f0e916825813e10d7343bd87a4f3b2452c4450029",
  "source": "pragma solidity ^0.4.24;\nimport \"./Items.sol\";\n\ncontract Platform is Items{\n\n    function newItem(string name, string description) external payable returns(uint) {\n        return _createItem(name, description);\n    }\n\n    function changeItem(uint id1, uint id2) external payable{\n        _changeWith(id1, id2);\n    }\n\n    // function addPreferAndCheck(uint id, uint preferId) external view returns(bool) {\n    //     return _addPreferAndCheck(id, preferId);\n    // }\n\n    function listUserItem() external view returns (uint[]) {\n        return _listItems(msg.sender);\n    }\n\n    function getItem(string name) external view returns (string, string) {\n        for(uint i = 0; i < _items.length; i++) {\n            if(keccak256(abi.encodePacked(_items[i]._name)) == keccak256(abi.encodePacked(name))) {\n                return (_items[i]._name, _items[i]._description); \n            }\n        }\n    }\n\n    function getSize() external view returns (uint)  {\n        return _listSize();\n    }\n    \n    function getItem(uint i) external view returns (string memory, string memory) {\n        return _item(i, msg.sender);\n    }\n\n    function listMatchItems() external view returns (uint[] memory) {\n        return _getMatchItems(msg.sender);\n    }\n}",
  "sourcePath": "/Users/kouniwa/Desktop/bello/NMLab/barter_DAPP/react-box/contracts/Platform.sol",
  "compiler": {
    "name": "solc",
    "version": "0.4.24+commit.e67f0147.Emscripten.clang"
  },
  "schemaVersion": "2.0.1",
  "updatedAt": "2019-01-13T14:52:17.972Z"
}