{
  "contractName": "Platform",
  "abi": [
    {
      "constant": true,
      "inputs": [
        {
          "name": "",
          "type": "uint256"
        }
      ],
      "name": "itemToOwner",
      "outputs": [
        {
          "name": "",
          "type": "address"
        }
      ],
      "payable": false,
      "stateMutability": "view",
      "type": "function"
    },
    {
      "constant": true,
      "inputs": [
        {
          "name": "status",
          "type": "uint8"
        }
      ],
      "name": "isPosting",
      "outputs": [
        {
          "name": "",
          "type": "bool"
        }
      ],
      "payable": false,
      "stateMutability": "view",
      "type": "function"
    },
    {
      "constant": true,
      "inputs": [
        {
          "name": "status",
          "type": "uint8"
        }
      ],
      "name": "isMatched",
      "outputs": [
        {
          "name": "",
          "type": "bool"
        }
      ],
      "payable": false,
      "stateMutability": "view",
      "type": "function"
    },
    {
      "constant": true,
      "inputs": [
        {
          "name": "",
          "type": "uint256"
        }
      ],
      "name": "_items",
      "outputs": [
        {
          "name": "_name",
          "type": "string"
        },
        {
          "name": "_description",
          "type": "string"
        },
        {
          "name": "_changeId",
          "type": "uint256"
        },
        {
          "name": "_status",
          "type": "uint8"
        }
      ],
      "payable": false,
      "stateMutability": "view",
      "type": "function"
    },
    {
      "constant": false,
      "inputs": [],
      "name": "renounceOwnership",
      "outputs": [],
      "payable": false,
      "stateMutability": "nonpayable",
      "type": "function"
    },
    {
      "constant": true,
      "inputs": [],
      "name": "owner",
      "outputs": [
        {
          "name": "",
          "type": "address"
        }
      ],
      "payable": false,
      "stateMutability": "view",
      "type": "function"
    },
    {
      "constant": true,
      "inputs": [],
      "name": "isOwner",
      "outputs": [
        {
          "name": "",
          "type": "bool"
        }
      ],
      "payable": false,
      "stateMutability": "view",
      "type": "function"
    },
    {
      "constant": false,
      "inputs": [
        {
          "name": "newOwner",
          "type": "address"
        }
      ],
      "name": "transferOwnership",
      "outputs": [],
      "payable": false,
      "stateMutability": "nonpayable",
      "type": "function"
    },
    {
      "anonymous": false,
      "inputs": [
        {
          "indexed": true,
          "name": "previousOwner",
          "type": "address"
        },
        {
          "indexed": true,
          "name": "newOwner",
          "type": "address"
        }
      ],
      "name": "OwnershipTransferred",
      "type": "event"
    },
    {
      "constant": false,
      "inputs": [
        {
          "name": "name",
          "type": "string"
        },
        {
          "name": "description",
          "type": "string"
        }
      ],
      "name": "newItem",
      "outputs": [],
      "payable": true,
      "stateMutability": "payable",
      "type": "function"
    },
    {
      "constant": false,
      "inputs": [
        {
          "name": "id1",
          "type": "uint256"
        },
        {
          "name": "id2",
          "type": "uint256"
        }
      ],
      "name": "changeItem",
      "outputs": [],
      "payable": true,
      "stateMutability": "payable",
      "type": "function"
    },
    {
      "constant": true,
      "inputs": [],
      "name": "listUserItem",
      "outputs": [
        {
          "name": "",
          "type": "uint256[]"
        }
      ],
      "payable": false,
      "stateMutability": "view",
      "type": "function"
    },
    {
      "constant": true,
      "inputs": [],
      "name": "getSize",
      "outputs": [
        {
          "name": "",
          "type": "uint256"
        }
      ],
      "payable": false,
      "stateMutability": "view",
      "type": "function"
    },
    {
      "constant": true,
      "inputs": [
        {
          "name": "i",
          "type": "uint256"
        }
      ],
      "name": "getItem",
      "outputs": [
        {
          "name": "",
          "type": "string"
        },
        {
          "name": "",
          "type": "string"
        }
      ],
      "payable": false,
      "stateMutability": "view",
      "type": "function"
    },
    {
      "constant": true,
      "inputs": [
        {
          "name": "name",
          "type": "string"
        }
      ],
      "name": "getItem",
      "outputs": [
        {
          "name": "",
          "type": "string"
        },
        {
          "name": "",
          "type": "string"
        }
      ],
      "payable": false,
      "stateMutability": "view",
      "type": "function"
    }
  ],
  "bytecode": "0x6080604052336000806101000a81548173ffffffffffffffffffffffffffffffffffffffff021916908373ffffffffffffffffffffffffffffffffffffffff1602179055506000809054906101000a900473ffffffffffffffffffffffffffffffffffffffff1673ffffffffffffffffffffffffffffffffffffffff16600073ffffffffffffffffffffffffffffffffffffffff167f8be0079c531659141344cd1fd0a4f28419497f9722a3daafe3b4186f6b6457e060405160405180910390a361171a806100cf6000396000f3006080604052600436106100d0576000357c0100000000000000000000000000000000000000000000000000000000900463ffffffff1680631a4d96cd146100d55780631a614f08146101425780631c4aedcb1461018a5780633129e773146101d257806344029410146102e4578063715018a6146104125780638da5cb5b146104295780638f32d59b14610480578063a3d835c0146104af578063b0b7e8ae146104f5578063b6010fcd1461051f578063bf103e031461063f578063de8fa431146106ab578063f2fde38b146106d6575b600080fd5b3480156100e157600080fd5b5061010060048036038101908080359060200190929190505050610719565b604051808273ffffffffffffffffffffffffffffffffffffffff1673ffffffffffffffffffffffffffffffffffffffff16815260200191505060405180910390f35b34801561014e57600080fd5b50610170600480360381019080803560ff16906020019092919050505061074c565b604051808215151515815260200191505060405180910390f35b34801561019657600080fd5b506101b8600480360381019080803560ff169060200190929190505050610782565b604051808215151515815260200191505060405180910390f35b3480156101de57600080fd5b506101fd600480360381019080803590602001909291905050506107b7565b604051808060200180602001838103835285818151815260200191508051906020019080838360005b83811015610241578082015181840152602081019050610226565b50505050905090810190601f16801561026e5780820380516001836020036101000a031916815260200191505b50838103825284818151815260200191508051906020019080838360005b838110156102a757808201518184015260208101905061028c565b50505050905090810190601f1680156102d45780820380516001836020036101000a031916815260200191505b5094505050505060405180910390f35b3480156102f057600080fd5b5061030f600480360381019080803590602001909291905050506107cc565b60405180806020018060200185815260200184600181111561032d57fe5b60ff168152602001838103835287818151815260200191508051906020019080838360005b8381101561036d578082015181840152602081019050610352565b50505050905090810190601f16801561039a5780820380516001836020036101000a031916815260200191505b50838103825286818151815260200191508051906020019080838360005b838110156103d35780820151818401526020810190506103b8565b50505050905090810190601f1680156104005780820380516001836020036101000a031916815260200191505b50965050505050505060405180910390f35b34801561041e57600080fd5b50610427610948565b005b34801561043557600080fd5b5061043e610a1a565b604051808273ffffffffffffffffffffffffffffffffffffffff1673ffffffffffffffffffffffffffffffffffffffff16815260200191505060405180910390f35b34801561048c57600080fd5b50610495610a43565b604051808215151515815260200191505060405180910390f35b6104f3600480360381019080803590602001908201803590602001919091929391929390803590602001908201803590602001919091929391929390505050610a9a565b005b61051d6004803603810190808035906020019092919080359060200190929190505050610b0e565b005b34801561052b57600080fd5b50610558600480360381019080803590602001908201803590602001919091929391929390505050610b1c565b604051808060200180602001838103835285818151815260200191508051906020019080838360005b8381101561059c578082015181840152602081019050610581565b50505050905090810190601f1680156105c95780820380516001836020036101000a031916815260200191505b50838103825284818151815260200191508051906020019080838360005b838110156106025780820151818401526020810190506105e7565b50505050905090810190601f16801561062f5780820380516001836020036101000a031916815260200191505b5094505050505060405180910390f35b34801561064b57600080fd5b50610654610e54565b6040518080602001828103825283818151815260200191508051906020019060200280838360005b8381101561069757808201518184015260208101905061067c565b505050509050019250505060405180910390f35b3480156106b757600080fd5b506106c0610e63565b6040518082815260200191505060405180910390f35b3480156106e257600080fd5b50610717600480360381019080803573ffffffffffffffffffffffffffffffffffffffff169060200190929190505050610e72565b005b60026020528060005260406000206000915054906101000a900473ffffffffffffffffffffffffffffffffffffffff1681565b6000610756610a43565b151561076157600080fd5b6000600181111561076e57fe5b82600181111561077a57fe5b149050919050565b600061078c610a43565b151561079757600080fd5b6001808111156107a357fe5b8260018111156107af57fe5b149050919050565b6060806107c383610e91565b91509150915091565b6001818154811015156107db57fe5b9060005260206000209060040201600091509050806000018054600181600116156101000203166002900480601f0160208091040260200160405190810160405280929190818152602001828054600181600116156101000203166002900480156108875780601f1061085c57610100808354040283529160200191610887565b820191906000526020600020905b81548152906001019060200180831161086a57829003601f168201915b505050505090806001018054600181600116156101000203166002900480601f0160208091040260200160405190810160405280929190818152602001828054600181600116156101000203166002900480156109255780601f106108fa57610100808354040283529160200191610925565b820191906000526020600020905b81548152906001019060200180831161090857829003601f168201915b5050505050908060020154908060030160009054906101000a900460ff16905084565b610950610a43565b151561095b57600080fd5b600073ffffffffffffffffffffffffffffffffffffffff166000809054906101000a900473ffffffffffffffffffffffffffffffffffffffff1673ffffffffffffffffffffffffffffffffffffffff167f8be0079c531659141344cd1fd0a4f28419497f9722a3daafe3b4186f6b6457e060405160405180910390a360008060006101000a81548173ffffffffffffffffffffffffffffffffffffffff021916908373ffffffffffffffffffffffffffffffffffffffff160217905550565b60008060009054906101000a900473ffffffffffffffffffffffffffffffffffffffff16905090565b60008060009054906101000a900473ffffffffffffffffffffffffffffffffffffffff1673ffffffffffffffffffffffffffffffffffffffff163373ffffffffffffffffffffffffffffffffffffffff1614905090565b610b0884848080601f01602080910402602001604051908101604052809392919081815260200183838082843782019150505050505083838080601f016020809104026020016040519081016040528093929190818152602001838380828437820191505050505050611015565b50505050565b610b188282611317565b5050565b60608060008090505b600180549050811015610e4b578484604051602001808383808284378201915050925050506040516020818303038152906040526040518082805190602001908083835b602083101515610b8e5780518252602082019150602081019050602083039250610b69565b6001836020036101000a038019825116818451168082178552505050505050905001915050604051809103902060001916600182815481101515610bce57fe5b90600052602060002090600402016000016040516020018082805460018160011615610100020316600290048015610c3d5780601f10610c1b576101008083540402835291820191610c3d565b820191906000526020600020905b815481529060010190602001808311610c29575b50509150506040516020818303038152906040526040518082805190602001908083835b602083101515610c865780518252602082019150602081019050602083039250610c61565b6001836020036101000a0380198251168184511680821785525050505050509050019150506040518091039020600019161415610e3e57600181815481101515610ccc57fe5b9060005260206000209060040201600001600182815481101515610cec57fe5b9060005260206000209060040201600101818054600181600116156101000203166002900480601f016020809104026020016040519081016040528092919081815260200182805460018160011615610100020316600290048015610d925780601f10610d6757610100808354040283529160200191610d92565b820191906000526020600020905b815481529060010190602001808311610d7557829003601f168201915b50505050509150808054600181600116156101000203166002900480601f016020809104026020016040519081016040528092919081815260200182805460018160011615610100020316600290048015610e2e5780601f10610e0357610100808354040283529160200191610e2e565b820191906000526020600020905b815481529060010190602001808311610e1157829003601f168201915b5050505050905092509250610e4c565b8080600101915050610b25565b5b509250929050565b6060610e5e6113e7565b905090565b6000610e6d611521565b905090565b610e7a610a43565b1515610e8557600080fd5b610e8e8161152e565b50565b606080600183815481101515610ea357fe5b9060005260206000209060040201600001600184815481101515610ec357fe5b9060005260206000209060040201600101818054600181600116156101000203166002900480601f016020809104026020016040519081016040528092919081815260200182805460018160011615610100020316600290048015610f695780601f10610f3e57610100808354040283529160200191610f69565b820191906000526020600020905b815481529060010190602001808311610f4c57829003601f168201915b50505050509150808054600181600116156101000203166002900480601f0160208091040260200160405190810160405280929190818152602001828054600181600116156101000203166002900480156110055780601f10610fda57610100808354040283529160200191611005565b820191906000526020600020905b815481529060010190602001808311610fe857829003601f168201915b5050505050905091509150915091565b600080600180549050141561115b5760016080604051908101604052806040805190810160405280600681526020017f5b4e6f6e655d000000000000000000000000000000000000000000000000000081525081526020016040805190810160405280601481526020017f5b4669727374206e756c6c20656c656d656e745d000000000000000000000000815250815260200160008152602001600060018111156110bc57fe5b815250908060018154018082558091505090600182039060005260206000209060040201600090919290919091506000820151816000019080519060200190611106929190611649565b506020820151816001019080519060200190611123929190611649565b506040820151816002015560608201518160030160006101000a81548160ff0219169083600181111561115257fe5b02179055505050505b600180608060405190810160405280868152602001858152602001600081526020016000600181111561118a57fe5b8152509080600181540180825580915050906001820390600052602060002090600402016000909192909190915060008201518160000190805190602001906111d4929190611649565b5060208201518160010190805190602001906111f1929190611649565b506040820151816002015560608201518160030160006101000a81548160ff0219169083600181111561122057fe5b02179055505050039050336002600083815260200190815260200160002060006101000a81548173ffffffffffffffffffffffffffffffffffffffff021916908373ffffffffffffffffffffffffffffffffffffffff1602179055506112cf6001600360003373ffffffffffffffffffffffffffffffffffffffff1673ffffffffffffffffffffffffffffffffffffffff1681526020019081526020016000205461162890919063ffffffff16565b600360003373ffffffffffffffffffffffffffffffffffffffff1673ffffffffffffffffffffffffffffffffffffffff16815260200190815260200160002081905550505050565b8060018381548110151561132757fe5b9060005260206000209060040201600201819055506001808381548110151561134c57fe5b906000526020600020906004020160030160006101000a81548160ff0219169083600181111561137857fe5b02179055508160018281548110151561138d57fe5b906000526020600020906004020160020181905550600180828154811015156113b257fe5b906000526020600020906004020160030160006101000a81548160ff021916908360018111156113de57fe5b02179055505050565b6060600080600090505b6001805490508110156114ca573373ffffffffffffffffffffffffffffffffffffffff166002600083815260200190815260200160002060009054906101000a900473ffffffffffffffffffffffffffffffffffffffff1673ffffffffffffffffffffffffffffffffffffffff1614801561148c5750600060018281548110151561147857fe5b906000526020600020906004020160020154145b156114bd57818190806001815401808255809150509060018203906000526020600020016000909192909190915055505b80806001019150506113f1565b8180548060200260200160405190810160405280929190818152602001828054801561151557602002820191906000526020600020905b815481526020019060010190808311611501575b50505050509250505090565b6000600180549050905090565b600073ffffffffffffffffffffffffffffffffffffffff168173ffffffffffffffffffffffffffffffffffffffff161415151561156a57600080fd5b8073ffffffffffffffffffffffffffffffffffffffff166000809054906101000a900473ffffffffffffffffffffffffffffffffffffffff1673ffffffffffffffffffffffffffffffffffffffff167f8be0079c531659141344cd1fd0a4f28419497f9722a3daafe3b4186f6b6457e060405160405180910390a3806000806101000a81548173ffffffffffffffffffffffffffffffffffffffff021916908373ffffffffffffffffffffffffffffffffffffffff16021790555050565b600080828401905083811015151561163f57600080fd5b8091505092915050565b828054600181600116156101000203166002900490600052602060002090601f016020900481019282601f1061168a57805160ff19168380011785556116b8565b828001600101855582156116b8579182015b828111156116b757825182559160200191906001019061169c565b5b5090506116c591906116c9565b5090565b6116eb91905b808211156116e75760008160009055506001016116cf565b5090565b905600a165627a7a7230582078e882e82dfef8a0fa1fae0eac76fc06fa17adaf3ef98986281a2da57958d8550029",
  "source": "pragma solidity ^0.4.24;\nimport \"./Items.sol\";\n\ncontract Platform is Items{\n\n    function newItem(string name, string description) external payable {\n        _createItem(name, description);\n    }\n\n    function changeItem(uint id1, uint id2) external payable{\n        _changeWith(id1, id2);\n    }\n\n    function listUserItem() external view returns (uint[] memory) {\n        return _listItems();\n    }\n\n    function getItem(string name) external view returns (string, string) {\n        for(uint i = 0; i < _items.length; i++) {\n            if(keccak256(abi.encodePacked(_items[i]._name)) == keccak256(abi.encodePacked(name))) {return (_items[i]._name, _items[i]._description); }\n        }\n    }\n\n    function getSize() external view returns (uint)  {\n        return _listSize();\n    }\n    \n    function getItem(uint i) external view returns (string memory, string memory) {\n        return _item(i);\n    }\n}",
  "sourcePath": "/Users/kouniwa/Desktop/bello/NMLab/barter_DAPP/react-box/contracts/Platform.sol",
  "compiler": {
    "name": "solc",
    "version": "0.4.24+commit.e67f0147.Emscripten.clang"
  },
  "schemaVersion": "2.0.1",
  "updatedAt": "2019-01-12T06:39:16.419Z"
}