{
  "contractName": "Platform",
  "abi": [
    {
      "constant": true,
      "inputs": [
        {
          "name": "",
          "type": "uint256"
        }
      ],
      "name": "itemToOwner",
      "outputs": [
        {
          "name": "",
          "type": "address"
        }
      ],
      "payable": false,
      "stateMutability": "view",
      "type": "function"
    },
    {
      "constant": true,
      "inputs": [
        {
          "name": "status",
          "type": "uint8"
        }
      ],
      "name": "isPosting",
      "outputs": [
        {
          "name": "",
          "type": "bool"
        }
      ],
      "payable": false,
      "stateMutability": "view",
      "type": "function"
    },
    {
      "constant": true,
      "inputs": [
        {
          "name": "status",
          "type": "uint8"
        }
      ],
      "name": "isMatched",
      "outputs": [
        {
          "name": "",
          "type": "bool"
        }
      ],
      "payable": false,
      "stateMutability": "view",
      "type": "function"
    },
    {
      "constant": true,
      "inputs": [
        {
          "name": "",
          "type": "uint256"
        }
      ],
      "name": "_items",
      "outputs": [
        {
          "name": "_name",
          "type": "string"
        },
        {
          "name": "_description",
          "type": "string"
        },
        {
          "name": "_changeId",
          "type": "uint256"
        },
        {
          "name": "_status",
          "type": "uint8"
        }
      ],
      "payable": false,
      "stateMutability": "view",
      "type": "function"
    },
    {
      "constant": false,
      "inputs": [],
      "name": "renounceOwnership",
      "outputs": [],
      "payable": false,
      "stateMutability": "nonpayable",
      "type": "function"
    },
    {
      "constant": true,
      "inputs": [],
      "name": "owner",
      "outputs": [
        {
          "name": "",
          "type": "address"
        }
      ],
      "payable": false,
      "stateMutability": "view",
      "type": "function"
    },
    {
      "constant": true,
      "inputs": [],
      "name": "isOwner",
      "outputs": [
        {
          "name": "",
          "type": "bool"
        }
      ],
      "payable": false,
      "stateMutability": "view",
      "type": "function"
    },
    {
      "constant": false,
      "inputs": [
        {
          "name": "newOwner",
          "type": "address"
        }
      ],
      "name": "transferOwnership",
      "outputs": [],
      "payable": false,
      "stateMutability": "nonpayable",
      "type": "function"
    },
    {
      "anonymous": false,
      "inputs": [
        {
          "indexed": true,
          "name": "previousOwner",
          "type": "address"
        },
        {
          "indexed": true,
          "name": "newOwner",
          "type": "address"
        }
      ],
      "name": "OwnershipTransferred",
      "type": "event"
    },
    {
      "constant": false,
      "inputs": [
        {
          "name": "name",
          "type": "string"
        },
        {
          "name": "description",
          "type": "string"
        }
      ],
      "name": "newItem",
      "outputs": [],
      "payable": true,
      "stateMutability": "payable",
      "type": "function"
    },
    {
      "constant": false,
      "inputs": [
        {
          "name": "id1",
          "type": "uint256"
        },
        {
          "name": "id2",
          "type": "uint256"
        }
      ],
      "name": "changeItem",
      "outputs": [],
      "payable": true,
      "stateMutability": "payable",
      "type": "function"
    },
    {
      "constant": true,
      "inputs": [],
      "name": "listUserItem",
      "outputs": [
        {
          "name": "",
          "type": "uint256[]"
        }
      ],
      "payable": false,
      "stateMutability": "view",
      "type": "function"
    },
    {
      "constant": true,
      "inputs": [],
      "name": "getSize",
      "outputs": [
        {
          "name": "",
          "type": "uint256"
        }
      ],
      "payable": false,
      "stateMutability": "view",
      "type": "function"
    },
    {
      "constant": true,
      "inputs": [
        {
          "name": "i",
          "type": "uint256"
        }
      ],
      "name": "getItem",
      "outputs": [
        {
          "name": "",
          "type": "string"
        },
        {
          "name": "",
          "type": "string"
        }
      ],
      "payable": false,
      "stateMutability": "view",
      "type": "function"
    },
    {
      "constant": true,
      "inputs": [],
      "name": "listMatchItems",
      "outputs": [
        {
          "name": "",
          "type": "uint256[]"
        }
      ],
      "payable": false,
      "stateMutability": "view",
      "type": "function"
    }
  ],
  "bytecode": "0x6080604052336000806101000a81548173ffffffffffffffffffffffffffffffffffffffff021916908373ffffffffffffffffffffffffffffffffffffffff1602179055506000809054906101000a900473ffffffffffffffffffffffffffffffffffffffff1673ffffffffffffffffffffffffffffffffffffffff16600073ffffffffffffffffffffffffffffffffffffffff167f8be0079c531659141344cd1fd0a4f28419497f9722a3daafe3b4186f6b6457e060405160405180910390a3611526806100cf6000396000f3006080604052600436106100d0576000357c0100000000000000000000000000000000000000000000000000000000900463ffffffff16806301bff832146100d55780631a4d96cd146101415780631a614f08146101ae5780631c4aedcb146101f65780633129e7731461023e5780634402941014610350578063715018a61461047e5780638da5cb5b146104955780638f32d59b146104ec578063a3d835c01461051b578063b0b7e8ae14610561578063bf103e031461058b578063de8fa431146105f7578063f2fde38b14610622575b600080fd5b3480156100e157600080fd5b506100ea610665565b6040518080602001828103825283818151815260200191508051906020019060200280838360005b8381101561012d578082015181840152602081019050610112565b505050509050019250505060405180910390f35b34801561014d57600080fd5b5061016c60048036038101908080359060200190929190505050610675565b604051808273ffffffffffffffffffffffffffffffffffffffff1673ffffffffffffffffffffffffffffffffffffffff16815260200191505060405180910390f35b3480156101ba57600080fd5b506101dc600480360381019080803560ff1690602001909291905050506106a8565b604051808215151515815260200191505060405180910390f35b34801561020257600080fd5b50610224600480360381019080803560ff1690602001909291905050506106de565b604051808215151515815260200191505060405180910390f35b34801561024a57600080fd5b5061026960048036038101908080359060200190929190505050610713565b604051808060200180602001838103835285818151815260200191508051906020019080838360005b838110156102ad578082015181840152602081019050610292565b50505050905090810190601f1680156102da5780820380516001836020036101000a031916815260200191505b50838103825284818151815260200191508051906020019080838360005b838110156103135780820151818401526020810190506102f8565b50505050905090810190601f1680156103405780820380516001836020036101000a031916815260200191505b5094505050505060405180910390f35b34801561035c57600080fd5b5061037b60048036038101908080359060200190929190505050610729565b60405180806020018060200185815260200184600181111561039957fe5b60ff168152602001838103835287818151815260200191508051906020019080838360005b838110156103d95780820151818401526020810190506103be565b50505050905090810190601f1680156104065780820380516001836020036101000a031916815260200191505b50838103825286818151815260200191508051906020019080838360005b8381101561043f578082015181840152602081019050610424565b50505050905090810190601f16801561046c5780820380516001836020036101000a031916815260200191505b50965050505050505060405180910390f35b34801561048a57600080fd5b506104936108a5565b005b3480156104a157600080fd5b506104aa610977565b604051808273ffffffffffffffffffffffffffffffffffffffff1673ffffffffffffffffffffffffffffffffffffffff16815260200191505060405180910390f35b3480156104f857600080fd5b506105016109a0565b604051808215151515815260200191505060405180910390f35b61055f6004803603810190808035906020019082018035906020019190919293919293908035906020019082018035906020019190919293919293905050506109f7565b005b6105896004803603810190808035906020019092919080359060200190929190505050610a6b565b005b34801561059757600080fd5b506105a0610a79565b6040518080602001828103825283818151815260200191508051906020019060200280838360005b838110156105e35780820151818401526020810190506105c8565b505050509050019250505060405180910390f35b34801561060357600080fd5b5061060c610a89565b6040518082815260200191505060405180910390f35b34801561062e57600080fd5b50610663600480360381019080803573ffffffffffffffffffffffffffffffffffffffff169060200190929190505050610a98565b005b606061067033610ab7565b905090565b60026020528060005260406000206000915054906101000a900473ffffffffffffffffffffffffffffffffffffffff1681565b60006106b26109a0565b15156106bd57600080fd5b600060018111156106ca57fe5b8260018111156106d657fe5b149050919050565b60006106e86109a0565b15156106f357600080fd5b6001808111156106ff57fe5b82600181111561070b57fe5b149050919050565b6060806107208333610bff565b91509150915091565b60018181548110151561073857fe5b9060005260206000209060040201600091509050806000018054600181600116156101000203166002900480601f0160208091040260200160405190810160405280929190818152602001828054600181600116156101000203166002900480156107e45780601f106107b9576101008083540402835291602001916107e4565b820191906000526020600020905b8154815290600101906020018083116107c757829003601f168201915b505050505090806001018054600181600116156101000203166002900480601f0160208091040260200160405190810160405280929190818152602001828054600181600116156101000203166002900480156108825780601f1061085757610100808354040283529160200191610882565b820191906000526020600020905b81548152906001019060200180831161086557829003601f168201915b5050505050908060020154908060030160009054906101000a900460ff16905084565b6108ad6109a0565b15156108b857600080fd5b600073ffffffffffffffffffffffffffffffffffffffff166000809054906101000a900473ffffffffffffffffffffffffffffffffffffffff1673ffffffffffffffffffffffffffffffffffffffff167f8be0079c531659141344cd1fd0a4f28419497f9722a3daafe3b4186f6b6457e060405160405180910390a360008060006101000a81548173ffffffffffffffffffffffffffffffffffffffff021916908373ffffffffffffffffffffffffffffffffffffffff160217905550565b60008060009054906101000a900473ffffffffffffffffffffffffffffffffffffffff16905090565b60008060009054906101000a900473ffffffffffffffffffffffffffffffffffffffff1673ffffffffffffffffffffffffffffffffffffffff163373ffffffffffffffffffffffffffffffffffffffff1614905090565b610a6584848080601f01602080910402602001604051908101604052809392919081815260200183838082843782019150505050505083838080601f016020809104026020016040519081016040528093929190818152602001838380828437820191505050505050610dfd565b50505050565b610a7582826110ff565b5050565b6060610a84336111cf565b905090565b6000610a9361132d565b905090565b610aa06109a0565b1515610aab57600080fd5b610ab48161133a565b50565b606080600080600180549050604051908082528060200260200182016040528015610af15781602001602082028038833980820191505090505b50925060009150600190505b600180549050811015610bf4578473ffffffffffffffffffffffffffffffffffffffff166002600083815260200190815260200160002060009054906101000a900473ffffffffffffffffffffffffffffffffffffffff1673ffffffffffffffffffffffffffffffffffffffff1614158015610bbc575060006001811115610b8157fe5b600182815481101515610b9057fe5b906000526020600020906004020160030160009054906101000a900460ff166001811115610bba57fe5b145b15610be757808383815181101515610bd057fe5b906020019060200201818152505081806001019250505b8080600101915050610afd565b829350505050919050565b60608060006001811115610c0f57fe5b600185815481101515610c1e57fe5b906000526020600020906004020160030160009054906101000a900460ff166001811115610c4857fe5b1415610dcf57600184815481101515610c5d57fe5b9060005260206000209060040201600001600185815481101515610c7d57fe5b9060005260206000209060040201600101818054600181600116156101000203166002900480601f016020809104026020016040519081016040528092919081815260200182805460018160011615610100020316600290048015610d235780601f10610cf857610100808354040283529160200191610d23565b820191906000526020600020905b815481529060010190602001808311610d0657829003601f168201915b50505050509150808054600181600116156101000203166002900480601f016020809104026020016040519081016040528092919081815260200182805460018160011615610100020316600290048015610dbf5780601f10610d9457610100808354040283529160200191610dbf565b820191906000526020600020905b815481529060010190602001808311610da257829003601f168201915b5050505050905091509150610df6565b60206040519081016040528060008152506020604051908101604052806000815250915091505b9250929050565b6000806001805490501415610f435760016080604051908101604052806040805190810160405280600681526020017f5b4e6f6e655d000000000000000000000000000000000000000000000000000081525081526020016040805190810160405280601481526020017f5b4669727374206e756c6c20656c656d656e745d00000000000000000000000081525081526020016000815260200160006001811115610ea457fe5b815250908060018154018082558091505090600182039060005260206000209060040201600090919290919091506000820151816000019080519060200190610eee929190611455565b506020820151816001019080519060200190610f0b929190611455565b506040820151816002015560608201518160030160006101000a81548160ff02191690836001811115610f3a57fe5b02179055505050505b6001806080604051908101604052808681526020018581526020016000815260200160006001811115610f7257fe5b815250908060018154018082558091505090600182039060005260206000209060040201600090919290919091506000820151816000019080519060200190610fbc929190611455565b506020820151816001019080519060200190610fd9929190611455565b506040820151816002015560608201518160030160006101000a81548160ff0219169083600181111561100857fe5b02179055505050039050336002600083815260200190815260200160002060006101000a81548173ffffffffffffffffffffffffffffffffffffffff021916908373ffffffffffffffffffffffffffffffffffffffff1602179055506110b76001600360003373ffffffffffffffffffffffffffffffffffffffff1673ffffffffffffffffffffffffffffffffffffffff1681526020019081526020016000205461143490919063ffffffff16565b600360003373ffffffffffffffffffffffffffffffffffffffff1673ffffffffffffffffffffffffffffffffffffffff16815260200190815260200160002081905550505050565b8060018381548110151561110f57fe5b9060005260206000209060040201600201819055506001808381548110151561113457fe5b906000526020600020906004020160030160006101000a81548160ff0219169083600181111561116057fe5b02179055508160018281548110151561117557fe5b9060005260206000209060040201600201819055506001808281548110151561119a57fe5b906000526020600020906004020160030160006101000a81548160ff021916908360018111156111c657fe5b02179055505050565b606080600080600360008673ffffffffffffffffffffffffffffffffffffffff1673ffffffffffffffffffffffffffffffffffffffff168152602001908152602001600020546040519080825280602002602001820160405280156112435781602001602082028038833980820191505090505b50925060009150600090505b600180549050811015611322578473ffffffffffffffffffffffffffffffffffffffff166002600083815260200190815260200160002060009054906101000a900473ffffffffffffffffffffffffffffffffffffffff1673ffffffffffffffffffffffffffffffffffffffff161480156112ea575060006001828154811015156112d657fe5b906000526020600020906004020160020154145b15611315578083838151811015156112fe57fe5b906020019060200201818152505081806001019250505b808060010191505061124f565b829350505050919050565b6000600180549050905090565b600073ffffffffffffffffffffffffffffffffffffffff168173ffffffffffffffffffffffffffffffffffffffff161415151561137657600080fd5b8073ffffffffffffffffffffffffffffffffffffffff166000809054906101000a900473ffffffffffffffffffffffffffffffffffffffff1673ffffffffffffffffffffffffffffffffffffffff167f8be0079c531659141344cd1fd0a4f28419497f9722a3daafe3b4186f6b6457e060405160405180910390a3806000806101000a81548173ffffffffffffffffffffffffffffffffffffffff021916908373ffffffffffffffffffffffffffffffffffffffff16021790555050565b600080828401905083811015151561144b57600080fd5b8091505092915050565b828054600181600116156101000203166002900490600052602060002090601f016020900481019282601f1061149657805160ff19168380011785556114c4565b828001600101855582156114c4579182015b828111156114c35782518255916020019190600101906114a8565b5b5090506114d191906114d5565b5090565b6114f791905b808211156114f35760008160009055506001016114db565b5090565b905600a165627a7a7230582006ef87b15ea2eef346c6397d84d2396f657249f341087f9898ac9a789e0f97c80029",
  "source": "pragma solidity ^0.4.24;\nimport \"./Items.sol\";\n\ncontract Platform is Items{\n\n    function newItem(string name, string description) external payable {\n        _createItem(name, description);\n    }\n\n    function changeItem(uint id1, uint id2) external payable{\n        _changeWith(id1, id2);\n    }\n\n    // function addPreferAndCheck(uint id, uint preferId) external view returns(bool) {\n    //     return _addPreferAndCheck(id, preferId);\n    // }\n\n    function listUserItem() external view returns (uint[]) {\n        return _listItems(msg.sender);\n    }\n\n    function getSize() external view returns (uint)  {\n        return _listSize();\n    }\n    \n    function getItem(uint i) external view returns (string memory, string memory) {\n        return _item(i, msg.sender);\n    }\n\n    function listMatchItems() external view returns (uint[] memory) {\n        return _getMatchItems(msg.sender);\n    }\n}",
  "sourcePath": "/Users/kouniwa/Desktop/bello/NMLab/barter_DAPP/react-box/contracts/Platform.sol",
  "compiler": {
    "name": "solc",
    "version": "0.4.24+commit.e67f0147.Emscripten.clang"
  },
  "schemaVersion": "2.0.1",
  "updatedAt": "2019-01-14T07:50:34.271Z"
}