{
  "contractName": "Platform",
  "abi": [
    {
      "constant": true,
      "inputs": [
        {
          "name": "",
          "type": "uint256"
        }
      ],
      "name": "itemToOwner",
      "outputs": [
        {
          "name": "",
          "type": "address"
        }
      ],
      "payable": false,
      "stateMutability": "view",
      "type": "function",
      "signature": "0x1a4d96cd"
    },
    {
      "constant": true,
      "inputs": [
        {
          "name": "status",
          "type": "uint8"
        }
      ],
      "name": "isPosting",
      "outputs": [
        {
          "name": "",
          "type": "bool"
        }
      ],
      "payable": false,
      "stateMutability": "view",
      "type": "function",
      "signature": "0x1a614f08"
    },
    {
      "constant": true,
      "inputs": [
        {
          "name": "status",
          "type": "uint8"
        }
      ],
      "name": "isMatched",
      "outputs": [
        {
          "name": "",
          "type": "bool"
        }
      ],
      "payable": false,
      "stateMutability": "view",
      "type": "function",
      "signature": "0x1c4aedcb"
    },
    {
      "constant": true,
      "inputs": [
        {
          "name": "",
          "type": "uint256"
        }
      ],
      "name": "_items",
      "outputs": [
        {
          "name": "_name",
          "type": "string"
        },
        {
          "name": "_description",
          "type": "string"
        },
        {
          "name": "_changeId",
          "type": "uint256"
        },
        {
          "name": "_status",
          "type": "uint8"
        }
      ],
      "payable": false,
      "stateMutability": "view",
      "type": "function",
      "signature": "0x44029410"
    },
    {
      "constant": false,
      "inputs": [],
      "name": "renounceOwnership",
      "outputs": [],
      "payable": false,
      "stateMutability": "nonpayable",
      "type": "function",
      "signature": "0x715018a6"
    },
    {
      "constant": true,
      "inputs": [],
      "name": "owner",
      "outputs": [
        {
          "name": "",
          "type": "address"
        }
      ],
      "payable": false,
      "stateMutability": "view",
      "type": "function",
      "signature": "0x8da5cb5b"
    },
    {
      "constant": true,
      "inputs": [],
      "name": "isOwner",
      "outputs": [
        {
          "name": "",
          "type": "bool"
        }
      ],
      "payable": false,
      "stateMutability": "view",
      "type": "function",
      "signature": "0x8f32d59b"
    },
    {
      "constant": false,
      "inputs": [
        {
          "name": "newOwner",
          "type": "address"
        }
      ],
      "name": "transferOwnership",
      "outputs": [],
      "payable": false,
      "stateMutability": "nonpayable",
      "type": "function",
      "signature": "0xf2fde38b"
    },
    {
      "anonymous": false,
      "inputs": [
        {
          "indexed": true,
          "name": "previousOwner",
          "type": "address"
        },
        {
          "indexed": true,
          "name": "newOwner",
          "type": "address"
        }
      ],
      "name": "OwnershipTransferred",
      "type": "event",
      "signature": "0x8be0079c531659141344cd1fd0a4f28419497f9722a3daafe3b4186f6b6457e0"
    },
    {
      "constant": false,
      "inputs": [
        {
          "name": "name",
          "type": "string"
        },
        {
          "name": "description",
          "type": "string"
        }
      ],
      "name": "newItem",
      "outputs": [
        {
          "name": "",
          "type": "uint256"
        }
      ],
      "payable": true,
      "stateMutability": "payable",
      "type": "function",
      "signature": "0xa3d835c0"
    },
    {
      "constant": false,
      "inputs": [
        {
          "name": "id1",
          "type": "uint256"
        },
        {
          "name": "id2",
          "type": "uint256"
        }
      ],
      "name": "changeItem",
      "outputs": [],
      "payable": true,
      "stateMutability": "payable",
      "type": "function",
      "signature": "0xb0b7e8ae"
    },
    {
      "constant": true,
      "inputs": [],
      "name": "listUserItem",
      "outputs": [
        {
          "name": "",
          "type": "uint256[]"
        }
      ],
      "payable": false,
      "stateMutability": "view",
      "type": "function",
      "signature": "0xbf103e03"
    },
    {
      "constant": true,
      "inputs": [],
      "name": "getSize",
      "outputs": [
        {
          "name": "",
          "type": "uint256"
        }
      ],
      "payable": false,
      "stateMutability": "view",
      "type": "function",
      "signature": "0xde8fa431"
    },
    {
      "constant": true,
      "inputs": [
        {
          "name": "i",
          "type": "uint256"
        }
      ],
      "name": "getItem",
      "outputs": [
        {
          "name": "",
          "type": "string"
        },
        {
          "name": "",
          "type": "string"
        }
      ],
      "payable": false,
      "stateMutability": "view",
      "type": "function",
      "signature": "0x3129e773"
    },
    {
      "constant": true,
      "inputs": [
        {
          "name": "name",
          "type": "string"
        }
      ],
      "name": "getItem",
      "outputs": [
        {
          "name": "",
          "type": "string"
        },
        {
          "name": "",
          "type": "string"
        }
      ],
      "payable": false,
      "stateMutability": "view",
      "type": "function",
      "signature": "0xb6010fcd"
    },
    {
      "constant": true,
      "inputs": [],
      "name": "listMatchItems",
      "outputs": [
        {
          "name": "",
          "type": "uint256[]"
        }
      ],
      "payable": false,
      "stateMutability": "view",
      "type": "function",
      "signature": "0x01bff832"
    }
  ],
  "bytecode": "0x6080604052336000806101000a81548173ffffffffffffffffffffffffffffffffffffffff021916908373ffffffffffffffffffffffffffffffffffffffff1602179055506000809054906101000a900473ffffffffffffffffffffffffffffffffffffffff1673ffffffffffffffffffffffffffffffffffffffff16600073ffffffffffffffffffffffffffffffffffffffff167f8be0079c531659141344cd1fd0a4f28419497f9722a3daafe3b4186f6b6457e060405160405180910390a3611b2f806100cf6000396000f3fe6080604052600436106100db576000357c0100000000000000000000000000000000000000000000000000000000900463ffffffff16806301bff832146100e05780631a4d96cd1461014c5780631a614f08146101c75780631c4aedcb1461021d5780633129e773146102735780634402941014610393578063715018a6146104cf5780638da5cb5b146104e65780638f32d59b1461053d578063a3d835c01461056c578063b0b7e8ae146106d2578063b6010fcd1461070a578063bf103e03146108b7578063de8fa43114610923578063f2fde38b1461094e575b600080fd5b3480156100ec57600080fd5b506100f561099f565b6040518080602001828103825283818151815260200191508051906020019060200280838360005b8381101561013857808201518184015260208101905061011d565b505050509050019250505060405180910390f35b34801561015857600080fd5b506101856004803603602081101561016f57600080fd5b81019080803590602001909291905050506109af565b604051808273ffffffffffffffffffffffffffffffffffffffff1673ffffffffffffffffffffffffffffffffffffffff16815260200191505060405180910390f35b3480156101d357600080fd5b50610203600480360360208110156101ea57600080fd5b81019080803560ff1690602001909291905050506109e2565b604051808215151515815260200191505060405180910390f35b34801561022957600080fd5b506102596004803603602081101561024057600080fd5b81019080803560ff169060200190929190505050610a18565b604051808215151515815260200191505060405180910390f35b34801561027f57600080fd5b506102ac6004803603602081101561029657600080fd5b8101908080359060200190929190505050610a4d565b604051808060200180602001838103835285818151815260200191508051906020019080838360005b838110156102f05780820151818401526020810190506102d5565b50505050905090810190601f16801561031d5780820380516001836020036101000a031916815260200191505b50838103825284818151815260200191508051906020019080838360005b8381101561035657808201518184015260208101905061033b565b50505050905090810190601f1680156103835780820380516001836020036101000a031916815260200191505b5094505050505060405180910390f35b34801561039f57600080fd5b506103cc600480360360208110156103b657600080fd5b8101908080359060200190929190505050610a63565b6040518080602001806020018581526020018460018111156103ea57fe5b60ff168152602001838103835287818151815260200191508051906020019080838360005b8381101561042a57808201518184015260208101905061040f565b50505050905090810190601f1680156104575780820380516001836020036101000a031916815260200191505b50838103825286818151815260200191508051906020019080838360005b83811015610490578082015181840152602081019050610475565b50505050905090810190601f1680156104bd5780820380516001836020036101000a031916815260200191505b50965050505050505060405180910390f35b3480156104db57600080fd5b506104e4610bdf565b005b3480156104f257600080fd5b506104fb610cb1565b604051808273ffffffffffffffffffffffffffffffffffffffff1673ffffffffffffffffffffffffffffffffffffffff16815260200191505060405180910390f35b34801561054957600080fd5b50610552610cda565b604051808215151515815260200191505060405180910390f35b6106bc6004803603604081101561058257600080fd5b810190808035906020019064010000000081111561059f57600080fd5b8201836020820111156105b157600080fd5b803590602001918460018302840111640100000000831117156105d357600080fd5b91908080601f016020809104026020016040519081016040528093929190818152602001838380828437600081840152601f19601f8201169050808301925050505050505091929192908035906020019064010000000081111561063657600080fd5b82018360208201111561064857600080fd5b8035906020019184600183028401116401000000008311171561066a57600080fd5b91908080601f016020809104026020016040519081016040528093929190818152602001838380828437600081840152601f19601f820116905080830192505050505050509192919290505050610d31565b6040518082815260200191505060405180910390f35b610708600480360360408110156106e857600080fd5b810190808035906020019092919080359060200190929190505050610d45565b005b34801561071657600080fd5b506107d06004803603602081101561072d57600080fd5b810190808035906020019064010000000081111561074a57600080fd5b82018360208201111561075c57600080fd5b8035906020019184600183028401116401000000008311171561077e57600080fd5b91908080601f016020809104026020016040519081016040528093929190818152602001838380828437600081840152601f19601f820116905080830192505050505050509192919290505050610d53565b604051808060200180602001838103835285818151815260200191508051906020019080838360005b838110156108145780820151818401526020810190506107f9565b50505050905090810190601f1680156108415780820380516001836020036101000a031916815260200191505b50838103825284818151815260200191508051906020019080838360005b8381101561087a57808201518184015260208101905061085f565b50505050905090810190601f1680156108a75780820380516001836020036101000a031916815260200191505b5094505050505060405180910390f35b3480156108c357600080fd5b506108cc611012565b6040518080602001828103825283818151815260200191508051906020019060200280838360005b8381101561090f5780820151818401526020810190506108f4565b505050509050019250505060405180910390f35b34801561092f57600080fd5b50610938611022565b6040518082815260200191505060405180910390f35b34801561095a57600080fd5b5061099d6004803603602081101561097157600080fd5b81019080803573ffffffffffffffffffffffffffffffffffffffff169060200190929190505050611031565b005b60606109aa33611050565b905090565b60026020528060005260406000206000915054906101000a900473ffffffffffffffffffffffffffffffffffffffff1681565b60006109ec610cda565b15156109f757600080fd5b60006001811115610a0457fe5b826001811115610a1057fe5b149050919050565b6000610a22610cda565b1515610a2d57600080fd5b600180811115610a3957fe5b826001811115610a4557fe5b149050919050565b606080610a5a8333611198565b91509150915091565b600181815481101515610a7257fe5b9060005260206000209060040201600091509050806000018054600181600116156101000203166002900480601f016020809104026020016040519081016040528092919081815260200182805460018160011615610100020316600290048015610b1e5780601f10610af357610100808354040283529160200191610b1e565b820191906000526020600020905b815481529060010190602001808311610b0157829003601f168201915b505050505090806001018054600181600116156101000203166002900480601f016020809104026020016040519081016040528092919081815260200182805460018160011615610100020316600290048015610bbc5780601f10610b9157610100808354040283529160200191610bbc565b820191906000526020600020905b815481529060010190602001808311610b9f57829003601f168201915b5050505050908060020154908060030160009054906101000a900460ff16905084565b610be7610cda565b1515610bf257600080fd5b600073ffffffffffffffffffffffffffffffffffffffff166000809054906101000a900473ffffffffffffffffffffffffffffffffffffffff1673ffffffffffffffffffffffffffffffffffffffff167f8be0079c531659141344cd1fd0a4f28419497f9722a3daafe3b4186f6b6457e060405160405180910390a360008060006101000a81548173ffffffffffffffffffffffffffffffffffffffff021916908373ffffffffffffffffffffffffffffffffffffffff160217905550565b60008060009054906101000a900473ffffffffffffffffffffffffffffffffffffffff16905090565b60008060009054906101000a900473ffffffffffffffffffffffffffffffffffffffff1673ffffffffffffffffffffffffffffffffffffffff163373ffffffffffffffffffffffffffffffffffffffff1614905090565b6000610d3d8383611400565b905092915050565b610d4f8282611709565b5050565b60608060008090505b60018054905081101561100b57836040516020018082805190602001908083835b602083101515610da25780518252602082019150602081019050602083039250610d7d565b6001836020036101000a03801982511681845116808217855250505050505090500191505060405160208183030381529060405280519060200120600182815481101515610dec57fe5b90600052602060002090600402016000016040516020018082805460018160011615610100020316600290048015610e5b5780601f10610e39576101008083540402835291820191610e5b565b820191906000526020600020905b815481529060010190602001808311610e47575b5050915050604051602081830303815290604052805190602001201415610ffe57600181815481101515610e8b57fe5b9060005260206000209060040201600001600182815481101515610eab57fe5b9060005260206000209060040201600101818054600181600116156101000203166002900480601f016020809104026020016040519081016040528092919081815260200182805460018160011615610100020316600290048015610f515780601f10610f2657610100808354040283529160200191610f51565b820191906000526020600020905b815481529060010190602001808311610f3457829003601f168201915b50505050509150808054600181600116156101000203166002900480601f016020809104026020016040519081016040528092919081815260200182805460018160011615610100020316600290048015610fed5780601f10610fc257610100808354040283529160200191610fed565b820191906000526020600020905b815481529060010190602001808311610fd057829003601f168201915b50505050509050925092505061100d565b8080600101915050610d5c565b505b915091565b606061101d336117d9565b905090565b600061102c611936565b905090565b611039610cda565b151561104457600080fd5b61104d81611943565b50565b6060806001805490506040519080825280602002602001820160405280156110875781602001602082028038833980820191505090505b50905060008090506000600190505b60018054905081101561118d578473ffffffffffffffffffffffffffffffffffffffff166002600083815260200190815260200160002060009054906101000a900473ffffffffffffffffffffffffffffffffffffffff1673ffffffffffffffffffffffffffffffffffffffff161415801561115557506000600181111561111a57fe5b60018281548110151561112957fe5b906000526020600020906004020160030160009054906101000a900460ff16600181111561115357fe5b145b156111805780838381518110151561116957fe5b906020019060200201818152505081806001019250505b8080600101915050611096565b508192505050919050565b6060806002600085815260200190815260200160002060009054906101000a900473ffffffffffffffffffffffffffffffffffffffff1673ffffffffffffffffffffffffffffffffffffffff168373ffffffffffffffffffffffffffffffffffffffff1614801561124c57506000600181111561121157fe5b60018581548110151561122057fe5b906000526020600020906004020160030160009054906101000a900460ff16600181111561124a57fe5b145b156113d25760018481548110151561126057fe5b906000526020600020906004020160000160018581548110151561128057fe5b9060005260206000209060040201600101818054600181600116156101000203166002900480601f0160208091040260200160405190810160405280929190818152602001828054600181600116156101000203166002900480156113265780601f106112fb57610100808354040283529160200191611326565b820191906000526020600020905b81548152906001019060200180831161130957829003601f168201915b50505050509150808054600181600116156101000203166002900480601f0160208091040260200160405190810160405280929190818152602001828054600181600116156101000203166002900480156113c25780601f10611397576101008083540402835291602001916113c2565b820191906000526020600020905b8154815290600101906020018083116113a557829003601f168201915b50505050509050915091506113f9565b60206040519081016040528060008152506020604051908101604052806000815250915091505b9250929050565b60008060018054905014156115465760016080604051908101604052806040805190810160405280600681526020017f5b4e6f6e655d000000000000000000000000000000000000000000000000000081525081526020016040805190810160405280601481526020017f5b4669727374206e756c6c20656c656d656e745d000000000000000000000000815250815260200160008152602001600060018111156114a757fe5b8152509080600181540180825580915050906001820390600052602060002090600402016000909192909190915060008201518160000190805190602001906114f1929190611a5e565b50602082015181600101908051906020019061150e929190611a5e565b506040820151816002015560608201518160030160006101000a81548160ff0219169083600181111561153d57fe5b02179055505050505b6000600180608060405190810160405280878152602001868152602001600081526020016000600181111561157757fe5b8152509080600181540180825580915050906001820390600052602060002090600402016000909192909190915060008201518160000190805190602001906115c1929190611a5e565b5060208201518160010190805190602001906115de929190611a5e565b506040820151816002015560608201518160030160006101000a81548160ff0219169083600181111561160d57fe5b02179055505050039050336002600083815260200190815260200160002060006101000a81548173ffffffffffffffffffffffffffffffffffffffff021916908373ffffffffffffffffffffffffffffffffffffffff1602179055506116bc6001600360003373ffffffffffffffffffffffffffffffffffffffff1673ffffffffffffffffffffffffffffffffffffffff16815260200190815260200160002054611a3d90919063ffffffff16565b600360003373ffffffffffffffffffffffffffffffffffffffff1673ffffffffffffffffffffffffffffffffffffffff168152602001908152602001600020819055508091505092915050565b8060018381548110151561171957fe5b9060005260206000209060040201600201819055506001808381548110151561173e57fe5b906000526020600020906004020160030160006101000a81548160ff0219169083600181111561176a57fe5b02179055508160018281548110151561177f57fe5b906000526020600020906004020160020181905550600180828154811015156117a457fe5b906000526020600020906004020160030160006101000a81548160ff021916908360018111156117d057fe5b02179055505050565b606080600360008473ffffffffffffffffffffffffffffffffffffffff1673ffffffffffffffffffffffffffffffffffffffff1681526020019081526020016000205460405190808252806020026020018201604052801561184a5781602001602082028038833980820191505090505b509050600080905060008090505b60018054905081101561192b578473ffffffffffffffffffffffffffffffffffffffff166002600083815260200190815260200160002060009054906101000a900473ffffffffffffffffffffffffffffffffffffffff1673ffffffffffffffffffffffffffffffffffffffff161480156118f3575060006001828154811015156118df57fe5b906000526020600020906004020160020154145b1561191e5780838381518110151561190757fe5b906020019060200201818152505081806001019250505b8080600101915050611858565b508192505050919050565b6000600180549050905090565b600073ffffffffffffffffffffffffffffffffffffffff168173ffffffffffffffffffffffffffffffffffffffff161415151561197f57600080fd5b8073ffffffffffffffffffffffffffffffffffffffff166000809054906101000a900473ffffffffffffffffffffffffffffffffffffffff1673ffffffffffffffffffffffffffffffffffffffff167f8be0079c531659141344cd1fd0a4f28419497f9722a3daafe3b4186f6b6457e060405160405180910390a3806000806101000a81548173ffffffffffffffffffffffffffffffffffffffff021916908373ffffffffffffffffffffffffffffffffffffffff16021790555050565b6000808284019050838110151515611a5457600080fd5b8091505092915050565b828054600181600116156101000203166002900490600052602060002090601f016020900481019282601f10611a9f57805160ff1916838001178555611acd565b82800160010185558215611acd579182015b82811115611acc578251825591602001919060010190611ab1565b5b509050611ada9190611ade565b5090565b611b0091905b80821115611afc576000816000905550600101611ae4565b5090565b9056fea165627a7a723058201407a4d2e8147bee151768f11ea8104603c12f73f920df4caaa85625f16358230029",
  "source": "pragma solidity ^0.5.0;\nimport \"./Items.sol\";\n\ncontract Platform is Items{\n\n    function newItem(string memory name, string memory description) public payable returns(uint) {\n        return _createItem(name, description);\n    }\n\n    function changeItem(uint id1, uint id2) public payable{\n        _changeWith(id1, id2);\n    }\n\n    // function addPreferAndCheck(uint id, uint preferId) public view returns(bool) {\n    //     return _addPreferAndCheck(id, preferId);\n    // }\n\n    function listUserItem() public view returns (uint[] memory) {\n        return _listItems(msg.sender);\n    }\n\n    function getItem(string memory name) public view returns (string memory, string memory) {\n        for(uint i = 0; i < _items.length; i++) {\n            if(keccak256(abi.encodePacked(_items[i]._name)) == keccak256(abi.encodePacked(name))) {\n                return (_items[i]._name, _items[i]._description); \n            }\n        }\n    }\n\n    function getSize() public view returns (uint)  {\n        return _listSize();\n    }\n    \n    function getItem(uint i) public view returns (string memory, string memory) {\n        return _item(i, msg.sender);\n    }\n\n    function listMatchItems() public view returns (uint[] memory) {\n        return _getMatchItems(msg.sender);\n    }\n}",
  "sourcePath": "/home/tpemist/Desktop/clone/barter_DAPP/react-box/contracts/Platform.sol",
  "compiler": {
    "name": "solc",
    "version": "0.5.0+commit.1d4f565a.Emscripten.clang"
  },
  "schemaVersion": "3.0.1",
  "updatedAt": "2019-01-13T14:00:49.766Z",
  "devdoc": {
    "methods": {
      "isOwner()": {
        "return": "true if `msg.sender` is the owner of the contract."
      },
      "owner()": {
        "return": "the address of the owner."
      },
      "renounceOwnership()": {
        "details": "Allows the current owner to relinquish control of the contract."
      },
      "transferOwnership(address)": {
        "details": "Allows the current owner to transfer control of the contract to a newOwner.",
        "params": {
          "newOwner": "The address to transfer ownership to."
        }
      }
    }
  },
  "userdoc": {
    "methods": {
      "renounceOwnership()": {
        "notice": "Renouncing to ownership will leave the contract without an owner. It will not be possible to call the functions with the `onlyOwner` modifier anymore."
      }
    }
  }
}