{
  "contractName": "Platform",
  "abi": [
    {
      "constant": true,
      "inputs": [
        {
          "name": "",
          "type": "uint256"
        }
      ],
      "name": "itemToOwner",
      "outputs": [
        {
          "name": "",
          "type": "address"
        }
      ],
      "payable": false,
      "stateMutability": "view",
      "type": "function",
      "signature": "0x1a4d96cd"
    },
    {
      "constant": true,
      "inputs": [
        {
          "name": "status",
          "type": "uint8"
        }
      ],
      "name": "isPosting",
      "outputs": [
        {
          "name": "",
          "type": "bool"
        }
      ],
      "payable": false,
      "stateMutability": "view",
      "type": "function",
      "signature": "0x1a614f08"
    },
    {
      "constant": true,
      "inputs": [
        {
          "name": "status",
          "type": "uint8"
        }
      ],
      "name": "isMatched",
      "outputs": [
        {
          "name": "",
          "type": "bool"
        }
      ],
      "payable": false,
      "stateMutability": "view",
      "type": "function",
      "signature": "0x1c4aedcb"
    },
    {
      "constant": true,
      "inputs": [
        {
          "name": "",
          "type": "uint256"
        }
      ],
      "name": "_items",
      "outputs": [
        {
          "name": "_name",
          "type": "string"
        },
        {
          "name": "_description",
          "type": "string"
        },
        {
          "name": "_changeId",
          "type": "uint256"
        },
        {
          "name": "_status",
          "type": "uint8"
        }
      ],
      "payable": false,
      "stateMutability": "view",
      "type": "function",
      "signature": "0x44029410"
    },
    {
      "constant": false,
      "inputs": [],
      "name": "renounceOwnership",
      "outputs": [],
      "payable": false,
      "stateMutability": "nonpayable",
      "type": "function",
      "signature": "0x715018a6"
    },
    {
      "constant": true,
      "inputs": [],
      "name": "owner",
      "outputs": [
        {
          "name": "",
          "type": "address"
        }
      ],
      "payable": false,
      "stateMutability": "view",
      "type": "function",
      "signature": "0x8da5cb5b"
    },
    {
      "constant": true,
      "inputs": [],
      "name": "isOwner",
      "outputs": [
        {
          "name": "",
          "type": "bool"
        }
      ],
      "payable": false,
      "stateMutability": "view",
      "type": "function",
      "signature": "0x8f32d59b"
    },
    {
      "constant": false,
      "inputs": [
        {
          "name": "newOwner",
          "type": "address"
        }
      ],
      "name": "transferOwnership",
      "outputs": [],
      "payable": false,
      "stateMutability": "nonpayable",
      "type": "function",
      "signature": "0xf2fde38b"
    },
    {
      "anonymous": false,
      "inputs": [
        {
          "indexed": true,
          "name": "previousOwner",
          "type": "address"
        },
        {
          "indexed": true,
          "name": "newOwner",
          "type": "address"
        }
      ],
      "name": "OwnershipTransferred",
      "type": "event",
      "signature": "0x8be0079c531659141344cd1fd0a4f28419497f9722a3daafe3b4186f6b6457e0"
    },
    {
      "constant": false,
      "inputs": [
        {
          "name": "name",
          "type": "string"
        },
        {
          "name": "description",
          "type": "string"
        }
      ],
      "name": "newItem",
      "outputs": [
        {
          "name": "",
          "type": "uint256"
        }
      ],
      "payable": true,
      "stateMutability": "payable",
      "type": "function",
      "signature": "0xa3d835c0"
    },
    {
      "constant": false,
      "inputs": [
        {
          "name": "id1",
          "type": "uint256"
        },
        {
          "name": "id2",
          "type": "uint256"
        }
      ],
      "name": "changeItem",
      "outputs": [],
      "payable": true,
      "stateMutability": "payable",
      "type": "function",
      "signature": "0xb0b7e8ae"
    },
    {
      "constant": true,
      "inputs": [],
      "name": "listUserItem",
      "outputs": [
        {
          "name": "",
          "type": "uint256[]"
        }
      ],
      "payable": false,
      "stateMutability": "view",
      "type": "function",
      "signature": "0xbf103e03"
    },
    {
      "constant": true,
      "inputs": [],
      "name": "getSize",
      "outputs": [
        {
          "name": "",
          "type": "uint256"
        }
      ],
      "payable": false,
      "stateMutability": "view",
      "type": "function",
      "signature": "0xde8fa431"
    },
    {
      "constant": true,
      "inputs": [
        {
          "name": "i",
          "type": "uint256"
        }
      ],
      "name": "getItem",
      "outputs": [
        {
          "name": "",
          "type": "string"
        },
        {
          "name": "",
          "type": "string"
        }
      ],
      "payable": false,
      "stateMutability": "view",
      "type": "function",
      "signature": "0x3129e773"
    },
    {
      "constant": true,
      "inputs": [],
      "name": "listMatchItems",
      "outputs": [
        {
          "name": "",
          "type": "uint256[]"
        }
      ],
      "payable": false,
      "stateMutability": "view",
      "type": "function",
      "signature": "0x01bff832"
    }
  ],
  "bytecode": "0x6080604052336000806101000a81548173ffffffffffffffffffffffffffffffffffffffff021916908373ffffffffffffffffffffffffffffffffffffffff1602179055506000809054906101000a900473ffffffffffffffffffffffffffffffffffffffff1673ffffffffffffffffffffffffffffffffffffffff16600073ffffffffffffffffffffffffffffffffffffffff167f8be0079c531659141344cd1fd0a4f28419497f9722a3daafe3b4186f6b6457e060405160405180910390a36116b8806100cf6000396000f3fe6080604052600436106100d0576000357c0100000000000000000000000000000000000000000000000000000000900463ffffffff16806301bff832146100d55780631a4d96cd146101415780631a614f08146101bc5780631c4aedcb146102125780633129e773146102685780634402941014610388578063715018a6146104c45780638da5cb5b146104db5780638f32d59b14610532578063a3d835c014610561578063b0b7e8ae146106c7578063bf103e03146106ff578063de8fa4311461076b578063f2fde38b14610796575b600080fd5b3480156100e157600080fd5b506100ea6107e7565b6040518080602001828103825283818151815260200191508051906020019060200280838360005b8381101561012d578082015181840152602081019050610112565b505050509050019250505060405180910390f35b34801561014d57600080fd5b5061017a6004803603602081101561016457600080fd5b81019080803590602001909291905050506107f7565b604051808273ffffffffffffffffffffffffffffffffffffffff1673ffffffffffffffffffffffffffffffffffffffff16815260200191505060405180910390f35b3480156101c857600080fd5b506101f8600480360360208110156101df57600080fd5b81019080803560ff16906020019092919050505061082a565b604051808215151515815260200191505060405180910390f35b34801561021e57600080fd5b5061024e6004803603602081101561023557600080fd5b81019080803560ff169060200190929190505050610860565b604051808215151515815260200191505060405180910390f35b34801561027457600080fd5b506102a16004803603602081101561028b57600080fd5b8101908080359060200190929190505050610895565b604051808060200180602001838103835285818151815260200191508051906020019080838360005b838110156102e55780820151818401526020810190506102ca565b50505050905090810190601f1680156103125780820380516001836020036101000a031916815260200191505b50838103825284818151815260200191508051906020019080838360005b8381101561034b578082015181840152602081019050610330565b50505050905090810190601f1680156103785780820380516001836020036101000a031916815260200191505b5094505050505060405180910390f35b34801561039457600080fd5b506103c1600480360360208110156103ab57600080fd5b81019080803590602001909291905050506108ab565b6040518080602001806020018581526020018460018111156103df57fe5b60ff168152602001838103835287818151815260200191508051906020019080838360005b8381101561041f578082015181840152602081019050610404565b50505050905090810190601f16801561044c5780820380516001836020036101000a031916815260200191505b50838103825286818151815260200191508051906020019080838360005b8381101561048557808201518184015260208101905061046a565b50505050905090810190601f1680156104b25780820380516001836020036101000a031916815260200191505b50965050505050505060405180910390f35b3480156104d057600080fd5b506104d9610a27565b005b3480156104e757600080fd5b506104f0610af9565b604051808273ffffffffffffffffffffffffffffffffffffffff1673ffffffffffffffffffffffffffffffffffffffff16815260200191505060405180910390f35b34801561053e57600080fd5b50610547610b22565b604051808215151515815260200191505060405180910390f35b6106b16004803603604081101561057757600080fd5b810190808035906020019064010000000081111561059457600080fd5b8201836020820111156105a657600080fd5b803590602001918460018302840111640100000000831117156105c857600080fd5b91908080601f016020809104026020016040519081016040528093929190818152602001838380828437600081840152601f19601f8201169050808301925050505050505091929192908035906020019064010000000081111561062b57600080fd5b82018360208201111561063d57600080fd5b8035906020019184600183028401116401000000008311171561065f57600080fd5b91908080601f016020809104026020016040519081016040528093929190818152602001838380828437600081840152601f19601f820116905080830192505050505050509192919290505050610b79565b6040518082815260200191505060405180910390f35b6106fd600480360360408110156106dd57600080fd5b810190808035906020019092919080359060200190929190505050610b8d565b005b34801561070b57600080fd5b50610714610b9b565b6040518080602001828103825283818151815260200191508051906020019060200280838360005b8381101561075757808201518184015260208101905061073c565b505050509050019250505060405180910390f35b34801561077757600080fd5b50610780610bab565b6040518082815260200191505060405180910390f35b3480156107a257600080fd5b506107e5600480360360208110156107b957600080fd5b81019080803573ffffffffffffffffffffffffffffffffffffffff169060200190929190505050610bba565b005b60606107f233610bd9565b905090565b60026020528060005260406000206000915054906101000a900473ffffffffffffffffffffffffffffffffffffffff1681565b6000610834610b22565b151561083f57600080fd5b6000600181111561084c57fe5b82600181111561085857fe5b149050919050565b600061086a610b22565b151561087557600080fd5b60018081111561088157fe5b82600181111561088d57fe5b149050919050565b6060806108a28333610d21565b91509150915091565b6001818154811015156108ba57fe5b9060005260206000209060040201600091509050806000018054600181600116156101000203166002900480601f0160208091040260200160405190810160405280929190818152602001828054600181600116156101000203166002900480156109665780601f1061093b57610100808354040283529160200191610966565b820191906000526020600020905b81548152906001019060200180831161094957829003601f168201915b505050505090806001018054600181600116156101000203166002900480601f016020809104026020016040519081016040528092919081815260200182805460018160011615610100020316600290048015610a045780601f106109d957610100808354040283529160200191610a04565b820191906000526020600020905b8154815290600101906020018083116109e757829003601f168201915b5050505050908060020154908060030160009054906101000a900460ff16905084565b610a2f610b22565b1515610a3a57600080fd5b600073ffffffffffffffffffffffffffffffffffffffff166000809054906101000a900473ffffffffffffffffffffffffffffffffffffffff1673ffffffffffffffffffffffffffffffffffffffff167f8be0079c531659141344cd1fd0a4f28419497f9722a3daafe3b4186f6b6457e060405160405180910390a360008060006101000a81548173ffffffffffffffffffffffffffffffffffffffff021916908373ffffffffffffffffffffffffffffffffffffffff160217905550565b60008060009054906101000a900473ffffffffffffffffffffffffffffffffffffffff16905090565b60008060009054906101000a900473ffffffffffffffffffffffffffffffffffffffff1673ffffffffffffffffffffffffffffffffffffffff163373ffffffffffffffffffffffffffffffffffffffff1614905090565b6000610b858383610f89565b905092915050565b610b978282611292565b5050565b6060610ba633611362565b905090565b6000610bb56114bf565b905090565b610bc2610b22565b1515610bcd57600080fd5b610bd6816114cc565b50565b606080600180549050604051908082528060200260200182016040528015610c105781602001602082028038833980820191505090505b50905060008090506000600190505b600180549050811015610d16578473ffffffffffffffffffffffffffffffffffffffff166002600083815260200190815260200160002060009054906101000a900473ffffffffffffffffffffffffffffffffffffffff1673ffffffffffffffffffffffffffffffffffffffff1614158015610cde575060006001811115610ca357fe5b600182815481101515610cb257fe5b906000526020600020906004020160030160009054906101000a900460ff166001811115610cdc57fe5b145b15610d0957808383815181101515610cf257fe5b906020019060200201818152505081806001019250505b8080600101915050610c1f565b508192505050919050565b6060806002600085815260200190815260200160002060009054906101000a900473ffffffffffffffffffffffffffffffffffffffff1673ffffffffffffffffffffffffffffffffffffffff168373ffffffffffffffffffffffffffffffffffffffff16148015610dd5575060006001811115610d9a57fe5b600185815481101515610da957fe5b906000526020600020906004020160030160009054906101000a900460ff166001811115610dd357fe5b145b15610f5b57600184815481101515610de957fe5b9060005260206000209060040201600001600185815481101515610e0957fe5b9060005260206000209060040201600101818054600181600116156101000203166002900480601f016020809104026020016040519081016040528092919081815260200182805460018160011615610100020316600290048015610eaf5780601f10610e8457610100808354040283529160200191610eaf565b820191906000526020600020905b815481529060010190602001808311610e9257829003601f168201915b50505050509150808054600181600116156101000203166002900480601f016020809104026020016040519081016040528092919081815260200182805460018160011615610100020316600290048015610f4b5780601f10610f2057610100808354040283529160200191610f4b565b820191906000526020600020905b815481529060010190602001808311610f2e57829003601f168201915b5050505050905091509150610f82565b60206040519081016040528060008152506020604051908101604052806000815250915091505b9250929050565b60008060018054905014156110cf5760016080604051908101604052806040805190810160405280600681526020017f5b4e6f6e655d000000000000000000000000000000000000000000000000000081525081526020016040805190810160405280601481526020017f5b4669727374206e756c6c20656c656d656e745d0000000000000000000000008152508152602001600081526020016000600181111561103057fe5b81525090806001815401808255809150509060018203906000526020600020906004020160009091929091909150600082015181600001908051906020019061107a9291906115e7565b5060208201518160010190805190602001906110979291906115e7565b506040820151816002015560608201518160030160006101000a81548160ff021916908360018111156110c657fe5b02179055505050505b6000600180608060405190810160405280878152602001868152602001600081526020016000600181111561110057fe5b81525090806001815401808255809150509060018203906000526020600020906004020160009091929091909150600082015181600001908051906020019061114a9291906115e7565b5060208201518160010190805190602001906111679291906115e7565b506040820151816002015560608201518160030160006101000a81548160ff0219169083600181111561119657fe5b02179055505050039050336002600083815260200190815260200160002060006101000a81548173ffffffffffffffffffffffffffffffffffffffff021916908373ffffffffffffffffffffffffffffffffffffffff1602179055506112456001600360003373ffffffffffffffffffffffffffffffffffffffff1673ffffffffffffffffffffffffffffffffffffffff168152602001908152602001600020546115c690919063ffffffff16565b600360003373ffffffffffffffffffffffffffffffffffffffff1673ffffffffffffffffffffffffffffffffffffffff168152602001908152602001600020819055508091505092915050565b806001838154811015156112a257fe5b906000526020600020906004020160020181905550600180838154811015156112c757fe5b906000526020600020906004020160030160006101000a81548160ff021916908360018111156112f357fe5b02179055508160018281548110151561130857fe5b9060005260206000209060040201600201819055506001808281548110151561132d57fe5b906000526020600020906004020160030160006101000a81548160ff0219169083600181111561135957fe5b02179055505050565b606080600360008473ffffffffffffffffffffffffffffffffffffffff1673ffffffffffffffffffffffffffffffffffffffff168152602001908152602001600020546040519080825280602002602001820160405280156113d35781602001602082028038833980820191505090505b509050600080905060008090505b6001805490508110156114b4578473ffffffffffffffffffffffffffffffffffffffff166002600083815260200190815260200160002060009054906101000a900473ffffffffffffffffffffffffffffffffffffffff1673ffffffffffffffffffffffffffffffffffffffff1614801561147c5750600060018281548110151561146857fe5b906000526020600020906004020160020154145b156114a75780838381518110151561149057fe5b906020019060200201818152505081806001019250505b80806001019150506113e1565b508192505050919050565b6000600180549050905090565b600073ffffffffffffffffffffffffffffffffffffffff168173ffffffffffffffffffffffffffffffffffffffff161415151561150857600080fd5b8073ffffffffffffffffffffffffffffffffffffffff166000809054906101000a900473ffffffffffffffffffffffffffffffffffffffff1673ffffffffffffffffffffffffffffffffffffffff167f8be0079c531659141344cd1fd0a4f28419497f9722a3daafe3b4186f6b6457e060405160405180910390a3806000806101000a81548173ffffffffffffffffffffffffffffffffffffffff021916908373ffffffffffffffffffffffffffffffffffffffff16021790555050565b60008082840190508381101515156115dd57600080fd5b8091505092915050565b828054600181600116156101000203166002900490600052602060002090601f016020900481019282601f1061162857805160ff1916838001178555611656565b82800160010185558215611656579182015b8281111561165557825182559160200191906001019061163a565b5b5090506116639190611667565b5090565b61168991905b8082111561168557600081600090555060010161166d565b5090565b9056fea165627a7a72305820fa07d76a66d970c0c68681ea08575a7b636f5967a0c2171af8a7bb37cc0032560029",
  "source": "pragma solidity ^0.5.0;\nimport \"./Items.sol\";\n\ncontract Platform is Items{\n\n    function newItem(string memory name, string memory description) public payable returns(uint) {\n        return _createItem(name, description);\n    }\n\n    function changeItem(uint id1, uint id2) public payable{\n        _changeWith(id1, id2);\n    }\n\n    // function addPreferAndCheck(uint id, uint preferId) public view returns(bool) {\n    //     return _addPreferAndCheck(id, preferId);\n    // }\n\n    function listUserItem() public view returns (uint[] memory) {\n        return _listItems(msg.sender);\n    }\n\n    function getSize() public view returns (uint)  {\n        return _listSize();\n    }\n    \n    function getItem(uint i) public view returns (string memory, string memory) {\n        return _item(i, msg.sender);\n    }\n\n    function listMatchItems() public view returns (uint[] memory) {\n        return _getMatchItems(msg.sender);\n    }\n}",
  "sourcePath": "/home/tpemist/Desktop/clone/barter_DAPP/react-box/contracts/Platform.sol",
  "compiler": {
    "name": "solc",
    "version": "0.5.0+commit.1d4f565a.Emscripten.clang"
  },
  "schemaVersion": "3.0.1",
  "updatedAt": "2019-01-14T03:26:22.097Z",
  "devdoc": {
    "methods": {
      "isOwner()": {
        "return": "true if `msg.sender` is the owner of the contract."
      },
      "owner()": {
        "return": "the address of the owner."
      },
      "renounceOwnership()": {
        "details": "Allows the current owner to relinquish control of the contract."
      },
      "transferOwnership(address)": {
        "details": "Allows the current owner to transfer control of the contract to a newOwner.",
        "params": {
          "newOwner": "The address to transfer ownership to."
        }
      }
    }
  },
  "userdoc": {
    "methods": {
      "renounceOwnership()": {
        "notice": "Renouncing to ownership will leave the contract without an owner. It will not be possible to call the functions with the `onlyOwner` modifier anymore."
      }
    }
  }
}