{
  "contractName": "Stat",
  "abi": [
    {
      "constant": false,
      "inputs": [],
      "name": "renounceOwnership",
      "outputs": [],
      "payable": false,
      "stateMutability": "nonpayable",
      "type": "function"
    },
    {
      "constant": true,
      "inputs": [],
      "name": "owner",
      "outputs": [
        {
          "name": "",
          "type": "address"
        }
      ],
      "payable": false,
      "stateMutability": "view",
      "type": "function"
    },
    {
      "constant": true,
      "inputs": [],
      "name": "isOwner",
      "outputs": [
        {
          "name": "",
          "type": "bool"
        }
      ],
      "payable": false,
      "stateMutability": "view",
      "type": "function"
    },
    {
      "constant": false,
      "inputs": [
        {
          "name": "newOwner",
          "type": "address"
        }
      ],
      "name": "transferOwnership",
      "outputs": [],
      "payable": false,
      "stateMutability": "nonpayable",
      "type": "function"
    },
    {
      "anonymous": false,
      "inputs": [
        {
          "indexed": true,
          "name": "previousOwner",
          "type": "address"
        },
        {
          "indexed": true,
          "name": "newOwner",
          "type": "address"
        }
      ],
      "name": "OwnershipTransferred",
      "type": "event"
    },
    {
      "constant": true,
      "inputs": [
        {
          "name": "status",
          "type": "uint8"
        }
      ],
      "name": "isPosting",
      "outputs": [
        {
          "name": "",
          "type": "bool"
        }
      ],
      "payable": false,
      "stateMutability": "view",
      "type": "function"
    },
    {
      "constant": true,
      "inputs": [
        {
          "name": "status",
          "type": "uint8"
        }
      ],
      "name": "isMatched",
      "outputs": [
        {
          "name": "",
          "type": "bool"
        }
      ],
      "payable": false,
      "stateMutability": "view",
      "type": "function"
    }
  ],
  "bytecode": "0x6080604052336000806101000a81548173ffffffffffffffffffffffffffffffffffffffff021916908373ffffffffffffffffffffffffffffffffffffffff1602179055506000809054906101000a900473ffffffffffffffffffffffffffffffffffffffff1673ffffffffffffffffffffffffffffffffffffffff16600073ffffffffffffffffffffffffffffffffffffffff167f8be0079c531659141344cd1fd0a4f28419497f9722a3daafe3b4186f6b6457e060405160405180910390a3610519806100cf6000396000f3fe608060405260043610610078576000357c0100000000000000000000000000000000000000000000000000000000900463ffffffff1680631a614f081461007d5780631c4aedcb146100d3578063715018a6146101295780638da5cb5b146101405780638f32d59b14610197578063f2fde38b146101c6575b600080fd5b34801561008957600080fd5b506100b9600480360360208110156100a057600080fd5b81019080803560ff169060200190929190505050610217565b604051808215151515815260200191505060405180910390f35b3480156100df57600080fd5b5061010f600480360360208110156100f657600080fd5b81019080803560ff16906020019092919050505061024d565b604051808215151515815260200191505060405180910390f35b34801561013557600080fd5b5061013e610282565b005b34801561014c57600080fd5b50610155610354565b604051808273ffffffffffffffffffffffffffffffffffffffff1673ffffffffffffffffffffffffffffffffffffffff16815260200191505060405180910390f35b3480156101a357600080fd5b506101ac61037d565b604051808215151515815260200191505060405180910390f35b3480156101d257600080fd5b50610215600480360360208110156101e957600080fd5b81019080803573ffffffffffffffffffffffffffffffffffffffff1690602001909291905050506103d4565b005b600061022161037d565b151561022c57600080fd5b6000600181111561023957fe5b82600181111561024557fe5b149050919050565b600061025761037d565b151561026257600080fd5b60018081111561026e57fe5b82600181111561027a57fe5b149050919050565b61028a61037d565b151561029557600080fd5b600073ffffffffffffffffffffffffffffffffffffffff166000809054906101000a900473ffffffffffffffffffffffffffffffffffffffff1673ffffffffffffffffffffffffffffffffffffffff167f8be0079c531659141344cd1fd0a4f28419497f9722a3daafe3b4186f6b6457e060405160405180910390a360008060006101000a81548173ffffffffffffffffffffffffffffffffffffffff021916908373ffffffffffffffffffffffffffffffffffffffff160217905550565b60008060009054906101000a900473ffffffffffffffffffffffffffffffffffffffff16905090565b60008060009054906101000a900473ffffffffffffffffffffffffffffffffffffffff1673ffffffffffffffffffffffffffffffffffffffff163373ffffffffffffffffffffffffffffffffffffffff1614905090565b6103dc61037d565b15156103e757600080fd5b6103f0816103f3565b50565b600073ffffffffffffffffffffffffffffffffffffffff168173ffffffffffffffffffffffffffffffffffffffff161415151561042f57600080fd5b8073ffffffffffffffffffffffffffffffffffffffff166000809054906101000a900473ffffffffffffffffffffffffffffffffffffffff1673ffffffffffffffffffffffffffffffffffffffff167f8be0079c531659141344cd1fd0a4f28419497f9722a3daafe3b4186f6b6457e060405160405180910390a3806000806101000a81548173ffffffffffffffffffffffffffffffffffffffff021916908373ffffffffffffffffffffffffffffffffffffffff1602179055505056fea165627a7a72305820450b35f8f2ed16beba0debac2512e7b8b1d5659701303cc40ef2757d80c50eb50029",
  "source": "pragma solidity ^0.5.0;\nimport \"./Ownable.sol\";\n\ncontract Stat is Ownable {\n    \n    //define Status\n    enum Status {POSTING, MATCHED}\n\n    //function for status\n    function isPosting(Status status) external view onlyOwner returns (bool){\n        return status == Status.POSTING;\n    }\n    function isMatched(Status status) external view onlyOwner returns (bool){\n        return status == Status.MATCHED;\n    }\n}",
  "sourcePath": "/home/tpemist/Desktop/clone/barter_DAPP/react-box/contracts/Status.sol",
  "compiler": {
    "name": "solc",
    "version": "0.5.0+commit.1d4f565a.Emscripten.clang"
  },
  "schemaVersion": "3.0.1",
  "updatedAt": "2019-01-13T08:48:55.163Z",
  "devdoc": {
    "methods": {
      "isOwner()": {
        "return": "true if `msg.sender` is the owner of the contract."
      },
      "owner()": {
        "return": "the address of the owner."
      },
      "renounceOwnership()": {
        "details": "Allows the current owner to relinquish control of the contract."
      },
      "transferOwnership(address)": {
        "details": "Allows the current owner to transfer control of the contract to a newOwner.",
        "params": {
          "newOwner": "The address to transfer ownership to."
        }
      }
    }
  },
  "userdoc": {
    "methods": {
      "renounceOwnership()": {
        "notice": "Renouncing to ownership will leave the contract without an owner. It will not be possible to call the functions with the `onlyOwner` modifier anymore."
      }
    }
  }
}